{"contracts/Escrow.sol":{"Escrow":{"abi":[{"inputs":[{"internalType":"address","name":"_freelancer","type":"address"},{"internalType":"address[]","name":"_arbiters","type":"address[]"},{"internalType":"uint256","name":"_amount","type":"uint256"},{"internalType":"string","name":"_terms","type":"string"}],"stateMutability":"payable","type":"constructor"},{"anonymous":false,"inputs":[],"name":"Cancelled","type":"event"},{"anonymous":false,"inputs":[],"name":"Completed","type":"event"},{"anonymous":false,"inputs":[{"indexed":false,"internalType":"address","name":"","type":"address"}],"name":"DisputeRaised","type":"event"},{"anonymous":false,"inputs":[],"name":"DisputeResolved","type":"event"},{"anonymous":false,"inputs":[],"name":"Initiated","type":"event"},{"anonymous":false,"inputs":[{"indexed":false,"internalType":"address","name":"","type":"address"}],"name":"Voted","type":"event"},{"inputs":[],"name":"amount","outputs":[{"internalType":"uint256","name":"","type":"uint256"}],"stateMutability":"view","type":"function"},{"inputs":[],"name":"client","outputs":[{"internalType":"address","name":"","type":"address"}],"stateMutability":"view","type":"function"},{"inputs":[],"name":"clientApproval","outputs":[],"stateMutability":"nonpayable","type":"function"},{"inputs":[],"name":"freelancer","outputs":[{"internalType":"address","name":"","type":"address"}],"stateMutability":"view","type":"function"},{"inputs":[{"internalType":"address","name":"","type":"address"}],"name":"hasVoted","outputs":[{"internalType":"bool","name":"","type":"bool"}],"stateMutability":"view","type":"function"},{"inputs":[],"name":"raiseDispute","outputs":[],"stateMutability":"nonpayable","type":"function"},{"inputs":[],"name":"state","outputs":[{"internalType":"enum Escrow.State","name":"","type":"uint8"}],"stateMutability":"view","type":"function"},{"inputs":[],"name":"terms","outputs":[{"internalType":"string","name":"","type":"string"}],"stateMutability":"view","type":"function"},{"inputs":[{"internalType":"bool","name":"approve","type":"bool"}],"name":"vote","outputs":[],"stateMutability":"nonpayable","type":"function"}],"evm":{"bytecode":{"linkReferences":{},"object":"608060405260405162001c2438038062001c24833981810160405281019062000029919062000516565b336000806101000a81548173ffffffffffffffffffffffffffffffffffffffff021916908373ffffffffffffffffffffffffffffffffffffffff16021790555083600160006101000a81548173ffffffffffffffffffffffffffffffffffffffff021916908373ffffffffffffffffffffffffffffffffffffffff160217905550816004819055508060059081620000c2919062000807565b506000600660006101000a81548160ff02191690836003811115620000ec57620000eb620008ee565b5b0217905550825160038190555060005b835181101562000189576001600260008684815181106200012257620001216200091d565b5b602002602001015173ffffffffffffffffffffffffffffffffffffffff1673ffffffffffffffffffffffffffffffffffffffff16815260200190815260200160002060006101000a81548160ff0219169083151502179055508080600101915050620000fc565b50600454341015620001d2576040517f08c379a0000000000000000000000000000000000000000000000000000000008152600401620001c990620009d3565b60405180910390fd5b7fe899121c4f1c7f070ab8ee107ad3d28ff5fe98442026a1361d1c1e1ded66e38e60405160405180910390a150505050620009f5565b6000604051905090565b600080fd5b600080fd5b600073ffffffffffffffffffffffffffffffffffffffff82169050919050565b600062000249826200021c565b9050919050565b6200025b816200023c565b81146200026757600080fd5b50565b6000815190506200027b8162000250565b92915050565b600080fd5b6000601f19601f8301169050919050565b7f4e487b7100000000000000000000000000000000000000000000000000000000600052604160045260246000fd5b620002d18262000286565b810181811067ffffffffffffffff82111715620002f357620002f262000297565b5b80604052505050565b60006200030862000208565b9050620003168282620002c6565b919050565b600067ffffffffffffffff82111562000339576200033862000297565b5b602082029050602081019050919050565b600080fd5b60006200036662000360846200031b565b620002fc565b905080838252602082019050602084028301858111156200038c576200038b6200034a565b5b835b81811015620003b95780620003a488826200026a565b8452602084019350506020810190506200038e565b5050509392505050565b600082601f830112620003db57620003da62000281565b5b8151620003ed8482602086016200034f565b91505092915050565b6000819050919050565b6200040b81620003f6565b81146200041757600080fd5b50565b6000815190506200042b8162000400565b92915050565b600080fd5b600067ffffffffffffffff82111562000454576200045362000297565b5b6200045f8262000286565b9050602081019050919050565b60005b838110156200048c5780820151818401526020810190506200046f565b60008484015250505050565b6000620004af620004a98462000436565b620002fc565b905082815260208101848484011115620004ce57620004cd62000431565b5b620004db8482856200046c565b509392505050565b600082601f830112620004fb57620004fa62000281565b5b81516200050d84826020860162000498565b91505092915050565b6000806000806080858703121562000533576200053262000212565b5b600062000543878288016200026a565b945050602085015167ffffffffffffffff81111562000567576200056662000217565b5b6200057587828801620003c3565b935050604062000588878288016200041a565b925050606085015167ffffffffffffffff811115620005ac57620005ab62000217565b5b620005ba87828801620004e3565b91505092959194509250565b600081519050919050565b7f4e487b7100000000000000000000000000000000000000000000000000000000600052602260045260246000fd5b600060028204905060018216806200061957607f821691505b6020821081036200062f576200062e620005d1565b5b50919050565b60008190508160005260206000209050919050565b60006020601f8301049050919050565b600082821b905092915050565b600060088302620006997fffffffffffffffffffffffffffffffffffffffffffffffffffffffffffffffff826200065a565b620006a586836200065a565b95508019841693508086168417925050509392505050565b6000819050919050565b6000620006e8620006e2620006dc84620003f6565b620006bd565b620003f6565b9050919050565b6000819050919050565b6200070483620006c7565b6200071c6200071382620006ef565b84845462000667565b825550505050565b600090565b6200073362000724565b62000740818484620006f9565b505050565b5b8181101562000768576200075c60008262000729565b60018101905062000746565b5050565b601f821115620007b757620007818162000635565b6200078c846200064a565b810160208510156200079c578190505b620007b4620007ab856200064a565b83018262000745565b50505b505050565b600082821c905092915050565b6000620007dc60001984600802620007bc565b1980831691505092915050565b6000620007f78383620007c9565b9150826002028217905092915050565b6200081282620005c6565b67ffffffffffffffff8111156200082e576200082d62000297565b5b6200083a825462000600565b620008478282856200076c565b600060209050601f8311600181146200087f57600084156200086a578287015190505b620008768582620007e9565b865550620008e6565b601f1984166200088f8662000635565b60005b82811015620008b95784890151825560018201915060208501945060208101905062000892565b86831015620008d95784890151620008d5601f891682620007c9565b8355505b6001600288020188555050505b505050505050565b7f4e487b7100000000000000000000000000000000000000000000000000000000600052602160045260246000fd5b7f4e487b7100000000000000000000000000000000000000000000000000000000600052603260045260246000fd5b600082825260208201905092915050565b7f5472616e7366657220616d6f756e74206973206c657373207468616e20636f6e60008201527f747261637420616d6f756e740000000000000000000000000000000000000000602082015250565b6000620009bb602c836200094c565b9150620009c8826200095d565b604082019050919050565b60006020820190508181036000830152620009ee81620009ac565b9050919050565b61121f8062000a056000396000f3fe608060405234801561001057600080fd5b50600436106100935760003560e01c80637ccbba7a116100665780637ccbba7a1461010c578063a37dda2c14610116578063aa8c217c14610134578063c19d93fb14610152578063d50256251461017057610093565b806309eef43e14610098578063109e94cf146100c85780634b9f5c98146100e65780636daa2d4414610102575b600080fd5b6100b260048036038101906100ad9190610b51565b61018e565b6040516100bf9190610b99565b60405180910390f35b6100d06101ae565b6040516100dd9190610bc3565b60405180910390f35b61010060048036038101906100fb9190610c0a565b6101d2565b005b61010a61033b565b005b6101146104fb565b005b61011e61060f565b60405161012b9190610bc3565b60405180910390f35b61013c610635565b6040516101499190610c50565b60405180910390f35b61015a61063b565b6040516101679190610ce2565b60405180910390f35b61017861064e565b6040516101859190610d8d565b60405180910390f35b60076020528060005260406000206000915054906101000a900460ff1681565b60008054906101000a900473ffffffffffffffffffffffffffffffffffffffff1681565b600260003373ffffffffffffffffffffffffffffffffffffffff1673ffffffffffffffffffffffffffffffffffffffff16815260200190815260200160002060009054906101000a900460ff1661025e576040517f08c379a000000000000000000000000000000000000000000000000000000000815260040161025590610dfb565b60405180910390fd5b6001600760003373ffffffffffffffffffffffffffffffffffffffff1673ffffffffffffffffffffffffffffffffffffffff16815260200190815260200160002060006101000a81548160ff0219169083151502179055507f16a9aa39af49f169911e977347975198c503525f7240d6892a626f0227642fce336040516102e59190610bc3565b60405180910390a16009600081548092919061030090610e4a565b91905055508015610324576008600081548092919061031e90610e4a565b91905055505b60035460095403610338576103376106dc565b5b50565b60008054906101000a900473ffffffffffffffffffffffffffffffffffffffff1673ffffffffffffffffffffffffffffffffffffffff163373ffffffffffffffffffffffffffffffffffffffff1614806103e25750600160009054906101000a900473ffffffffffffffffffffffffffffffffffffffff1673ffffffffffffffffffffffffffffffffffffffff163373ffffffffffffffffffffffffffffffffffffffff16145b610421576040517f08c379a000000000000000000000000000000000000000000000000000000000815260040161041890610f04565b60405180910390fd5b6000600381111561043557610434610c6b565b5b600660009054906101000a900460ff16600381111561045757610456610c6b565b5b14610497576040517f08c379a000000000000000000000000000000000000000000000000000000000815260040161048e90610f96565b60405180910390fd5b6001600660006101000a81548160ff021916908360038111156104bd576104bc610c6b565b5b02179055507f0b3cd97b16a08a5c77357c276d248827ad32dfd56060f7c55d6255537ba3d962336040516104f19190610bc3565b60405180910390a1565b60008054906101000a900473ffffffffffffffffffffffffffffffffffffffff1673ffffffffffffffffffffffffffffffffffffffff163373ffffffffffffffffffffffffffffffffffffffff1614610589576040517f08c379a000000000000000000000000000000000000000000000000000000000815260040161058090611028565b60405180910390fd5b6105c76040518060400160405280601c81526020017f696e7369646520636c69656e7420617070726f76616c20737461727400000000815250610738565b6105cf6107d1565b61060d6040518060400160405280601a81526020017f696e7369646520636c69656e7420617070726f76616c20656e64000000000000815250610738565b565b600160009054906101000a900473ffffffffffffffffffffffffffffffffffffffff1681565b60045481565b600660009054906101000a900460ff1681565b6005805461065b90611077565b80601f016020809104026020016040519081016040528092919081815260200182805461068790611077565b80156106d45780601f106106a9576101008083540402835291602001916106d4565b820191906000526020600020905b8154815290600101906020018083116106b757829003601f168201915b505050505081565b60026003546106eb91906110d7565b6008541115610701576106fc6107d1565b61070a565b610709610977565b5b7f10cf2e6a49384e0817ef896233aca0b14f649b81e549f2e6ec5a023f4daf54c160405160405180910390a1565b6107ce8160405160240161074c9190610d8d565b6040516020818303038152906040527f41304fac000000000000000000000000000000000000000000000000000000007bffffffffffffffffffffffffffffffffffffffffffffffffffffffff19166020820180517bffffffffffffffffffffffffffffffffffffffffffffffffffffffff8381831617835250505050610a9e565b50565b61080f6040518060400160405280601c81526020017f696e736964652070726f63657373207061796d656e7420737461727400000000815250610738565b6000600160009054906101000a900473ffffffffffffffffffffffffffffffffffffffff1673ffffffffffffffffffffffffffffffffffffffff1660045460405161085990611139565b60006040518083038185875af1925050503d8060008114610896576040519150601f19603f3d011682016040523d82523d6000602084013e61089b565b606091505b50509050806108df576040517f08c379a00000000000000000000000000000000000000000000000000000000081526004016108d69061119a565b60405180910390fd5b6003600660006101000a81548160ff0219169083600381111561090557610904610c6b565b5b02179055507fe06452d00b2b58f14a1fa6d499ea982ff93ea827ae700ea9ba03f4daddc94bc160405160405180910390a16109746040518060400160405280601a81526020017f696e736964652070726f63657373207061796d656e7420656e64000000000000815250610738565b50565b60008060009054906101000a900473ffffffffffffffffffffffffffffffffffffffff1673ffffffffffffffffffffffffffffffffffffffff16476040516109be90611139565b60006040518083038185875af1925050503d80600081146109fb576040519150601f19603f3d011682016040523d82523d6000602084013e610a00565b606091505b5050905080610a44576040517f08c379a0000000000000000000000000000000000000000000000000000000008152600401610a3b9061119a565b60405180910390fd5b6002600660006101000a81548160ff02191690836003811115610a6a57610a69610c6b565b5b02179055507f63b958841f79ab97cb5456da181454b9932c0e15a3b17f1cbd27e2a8bc61043760405160405180910390a150565b610ab581610aad610ab8610ad9565b63ffffffff16565b50565b60006a636f6e736f6c652e6c6f679050600080835160208501845afa505050565b610ae4819050919050565b610aec6111ba565b565b600080fd5b600073ffffffffffffffffffffffffffffffffffffffff82169050919050565b6000610b1e82610af3565b9050919050565b610b2e81610b13565b8114610b3957600080fd5b50565b600081359050610b4b81610b25565b92915050565b600060208284031215610b6757610b66610aee565b5b6000610b7584828501610b3c565b91505092915050565b60008115159050919050565b610b9381610b7e565b82525050565b6000602082019050610bae6000830184610b8a565b92915050565b610bbd81610b13565b82525050565b6000602082019050610bd86000830184610bb4565b92915050565b610be781610b7e565b8114610bf257600080fd5b50565b600081359050610c0481610bde565b92915050565b600060208284031215610c2057610c1f610aee565b5b6000610c2e84828501610bf5565b91505092915050565b6000819050919050565b610c4a81610c37565b82525050565b6000602082019050610c656000830184610c41565b92915050565b7f4e487b7100000000000000000000000000000000000000000000000000000000600052602160045260246000fd5b60048110610cab57610caa610c6b565b5b50565b6000819050610cbc82610c9a565b919050565b6000610ccc82610cae565b9050919050565b610cdc81610cc1565b82525050565b6000602082019050610cf76000830184610cd3565b92915050565b600081519050919050565b600082825260208201905092915050565b60005b83811015610d37578082015181840152602081019050610d1c565b60008484015250505050565b6000601f19601f8301169050919050565b6000610d5f82610cfd565b610d698185610d08565b9350610d79818560208601610d19565b610d8281610d43565b840191505092915050565b60006020820190508181036000830152610da78184610d54565b905092915050565b7f4f6e6c792061726269746572732063616e20766f746500000000000000000000600082015250565b6000610de5601683610d08565b9150610df082610daf565b602082019050919050565b60006020820190508181036000830152610e1481610dd8565b9050919050565b7f4e487b7100000000000000000000000000000000000000000000000000000000600052601160045260246000fd5b6000610e5582610c37565b91507fffffffffffffffffffffffffffffffffffffffffffffffffffffffffffffffff8203610e8757610e86610e1b565b5b600182019050919050565b7f4f6e6c7920636c69656e74206f7220667265656c616e6365722063616e20726160008201527f6973652064697370757465000000000000000000000000000000000000000000602082015250565b6000610eee602b83610d08565b9150610ef982610e92565b604082019050919050565b60006020820190508181036000830152610f1d81610ee1565b9050919050565b7f446973707574652063616e27742062652072616973656420616674657220636f60008201527f6d706c6574696f6e206f722063616e63656c6c6174696f6e0000000000000000602082015250565b6000610f80603883610d08565b9150610f8b82610f24565b604082019050919050565b60006020820190508181036000830152610faf81610f73565b9050919050565b7f4f6e6c7920636c69656e742063616e2070726f6365737320696e7374616e746c60008201527f7900000000000000000000000000000000000000000000000000000000000000602082015250565b6000611012602183610d08565b915061101d82610fb6565b604082019050919050565b6000602082019050818103600083015261104181611005565b9050919050565b7f4e487b7100000000000000000000000000000000000000000000000000000000600052602260045260246000fd5b6000600282049050600182168061108f57607f821691505b6020821081036110a2576110a1611048565b5b50919050565b7f4e487b7100000000000000000000000000000000000000000000000000000000600052601260045260246000fd5b60006110e282610c37565b91506110ed83610c37565b9250826110fd576110fc6110a8565b5b828204905092915050565b600081905092915050565b50565b6000611123600083611108565b915061112e82611113565b600082019050919050565b600061114482611116565b9150819050919050565b7f4661696c656420746f2073656e64206574686572000000000000000000000000600082015250565b6000611184601483610d08565b915061118f8261114e565b602082019050919050565b600060208201905081810360008301526111b381611177565b9050919050565b7f4e487b7100000000000000000000000000000000000000000000000000000000600052605160045260246000fdfea264697066735822122093c8569b27d6029bdd424fe67be608aa1eae38072513d7511450c686d9851bf664736f6c63430008180033","opcodes":"PUSH1 0x80 PUSH1 0x40 MSTORE PUSH1 0x40 MLOAD PUSH3 0x1C24 CODESIZE SUB DUP1 PUSH3 0x1C24 DUP4 CODECOPY DUP2 DUP2 ADD PUSH1 0x40 MSTORE DUP2 ADD SWAP1 PUSH3 0x29 SWAP2 SWAP1 PUSH3 0x516 JUMP JUMPDEST CALLER PUSH1 0x0 DUP1 PUSH2 0x100 EXP DUP2 SLOAD DUP2 PUSH20 0xFFFFFFFFFFFFFFFFFFFFFFFFFFFFFFFFFFFFFFFF MUL NOT AND SWAP1 DUP4 PUSH20 0xFFFFFFFFFFFFFFFFFFFFFFFFFFFFFFFFFFFFFFFF AND MUL OR SWAP1 SSTORE POP DUP4 PUSH1 0x1 PUSH1 0x0 PUSH2 0x100 EXP DUP2 SLOAD DUP2 PUSH20 0xFFFFFFFFFFFFFFFFFFFFFFFFFFFFFFFFFFFFFFFF MUL NOT AND SWAP1 DUP4 PUSH20 0xFFFFFFFFFFFFFFFFFFFFFFFFFFFFFFFFFFFFFFFF AND MUL OR SWAP1 SSTORE POP DUP2 PUSH1 0x4 DUP2 SWAP1 SSTORE POP DUP1 PUSH1 0x5 SWAP1 DUP2 PUSH3 0xC2 SWAP2 SWAP1 PUSH3 0x807 JUMP JUMPDEST POP PUSH1 0x0 PUSH1 0x6 PUSH1 0x0 PUSH2 0x100 EXP DUP2 SLOAD DUP2 PUSH1 0xFF MUL NOT AND SWAP1 DUP4 PUSH1 0x3 DUP2 GT ISZERO PUSH3 0xEC JUMPI PUSH3 0xEB PUSH3 0x8EE JUMP JUMPDEST JUMPDEST MUL OR SWAP1 SSTORE POP DUP3 MLOAD PUSH1 0x3 DUP2 SWAP1 SSTORE POP PUSH1 0x0 JUMPDEST DUP4 MLOAD DUP2 LT ISZERO PUSH3 0x189 JUMPI PUSH1 0x1 PUSH1 0x2 PUSH1 0x0 DUP7 DUP5 DUP2 MLOAD DUP2 LT PUSH3 0x122 JUMPI PUSH3 0x121 PUSH3 0x91D JUMP JUMPDEST JUMPDEST PUSH1 0x20 MUL PUSH1 0x20 ADD ADD MLOAD PUSH20 0xFFFFFFFFFFFFFFFFFFFFFFFFFFFFFFFFFFFFFFFF AND PUSH20 0xFFFFFFFFFFFFFFFFFFFFFFFFFFFFFFFFFFFFFFFF AND DUP2 MSTORE PUSH1 0x20 ADD SWAP1 DUP2 MSTORE PUSH1 0x20 ADD PUSH1 0x0 KECCAK256 PUSH1 0x0 PUSH2 0x100 EXP DUP2 SLOAD DUP2 PUSH1 0xFF MUL NOT AND SWAP1 DUP4 ISZERO ISZERO MUL OR SWAP1 SSTORE POP DUP1 DUP1 PUSH1 0x1 ADD SWAP2 POP POP PUSH3 0xFC JUMP JUMPDEST POP PUSH1 0x4 SLOAD CALLVALUE LT ISZERO PUSH3 0x1D2 JUMPI PUSH1 0x40 MLOAD PUSH32 0x8C379A000000000000000000000000000000000000000000000000000000000 DUP2 MSTORE PUSH1 0x4 ADD PUSH3 0x1C9 SWAP1 PUSH3 0x9D3 JUMP JUMPDEST PUSH1 0x40 MLOAD DUP1 SWAP2 SUB SWAP1 REVERT JUMPDEST PUSH32 0xE899121C4F1C7F070AB8EE107AD3D28FF5FE98442026A1361D1C1E1DED66E38E PUSH1 0x40 MLOAD PUSH1 0x40 MLOAD DUP1 SWAP2 SUB SWAP1 LOG1 POP POP POP POP PUSH3 0x9F5 JUMP JUMPDEST PUSH1 0x0 PUSH1 0x40 MLOAD SWAP1 POP SWAP1 JUMP JUMPDEST PUSH1 0x0 DUP1 REVERT JUMPDEST PUSH1 0x0 DUP1 REVERT JUMPDEST PUSH1 0x0 PUSH20 0xFFFFFFFFFFFFFFFFFFFFFFFFFFFFFFFFFFFFFFFF DUP3 AND SWAP1 POP SWAP2 SWAP1 POP JUMP JUMPDEST PUSH1 0x0 PUSH3 0x249 DUP3 PUSH3 0x21C JUMP JUMPDEST SWAP1 POP SWAP2 SWAP1 POP JUMP JUMPDEST PUSH3 0x25B DUP2 PUSH3 0x23C JUMP JUMPDEST DUP2 EQ PUSH3 0x267 JUMPI PUSH1 0x0 DUP1 REVERT JUMPDEST POP JUMP JUMPDEST PUSH1 0x0 DUP2 MLOAD SWAP1 POP PUSH3 0x27B DUP2 PUSH3 0x250 JUMP JUMPDEST SWAP3 SWAP2 POP POP JUMP JUMPDEST PUSH1 0x0 DUP1 REVERT JUMPDEST PUSH1 0x0 PUSH1 0x1F NOT PUSH1 0x1F DUP4 ADD AND SWAP1 POP SWAP2 SWAP1 POP JUMP JUMPDEST PUSH32 0x4E487B7100000000000000000000000000000000000000000000000000000000 PUSH1 0x0 MSTORE PUSH1 0x41 PUSH1 0x4 MSTORE PUSH1 0x24 PUSH1 0x0 REVERT JUMPDEST PUSH3 0x2D1 DUP3 PUSH3 0x286 JUMP JUMPDEST DUP2 ADD DUP2 DUP2 LT PUSH8 0xFFFFFFFFFFFFFFFF DUP3 GT OR ISZERO PUSH3 0x2F3 JUMPI PUSH3 0x2F2 PUSH3 0x297 JUMP JUMPDEST JUMPDEST DUP1 PUSH1 0x40 MSTORE POP POP POP JUMP JUMPDEST PUSH1 0x0 PUSH3 0x308 PUSH3 0x208 JUMP JUMPDEST SWAP1 POP PUSH3 0x316 DUP3 DUP3 PUSH3 0x2C6 JUMP JUMPDEST SWAP2 SWAP1 POP JUMP JUMPDEST PUSH1 0x0 PUSH8 0xFFFFFFFFFFFFFFFF DUP3 GT ISZERO PUSH3 0x339 JUMPI PUSH3 0x338 PUSH3 0x297 JUMP JUMPDEST JUMPDEST PUSH1 0x20 DUP3 MUL SWAP1 POP PUSH1 0x20 DUP2 ADD SWAP1 POP SWAP2 SWAP1 POP JUMP JUMPDEST PUSH1 0x0 DUP1 REVERT JUMPDEST PUSH1 0x0 PUSH3 0x366 PUSH3 0x360 DUP5 PUSH3 0x31B JUMP JUMPDEST PUSH3 0x2FC JUMP JUMPDEST SWAP1 POP DUP1 DUP4 DUP3 MSTORE PUSH1 0x20 DUP3 ADD SWAP1 POP PUSH1 0x20 DUP5 MUL DUP4 ADD DUP6 DUP2 GT ISZERO PUSH3 0x38C JUMPI PUSH3 0x38B PUSH3 0x34A JUMP JUMPDEST JUMPDEST DUP4 JUMPDEST DUP2 DUP2 LT ISZERO PUSH3 0x3B9 JUMPI DUP1 PUSH3 0x3A4 DUP9 DUP3 PUSH3 0x26A JUMP JUMPDEST DUP5 MSTORE PUSH1 0x20 DUP5 ADD SWAP4 POP POP PUSH1 0x20 DUP2 ADD SWAP1 POP PUSH3 0x38E JUMP JUMPDEST POP POP POP SWAP4 SWAP3 POP POP POP JUMP JUMPDEST PUSH1 0x0 DUP3 PUSH1 0x1F DUP4 ADD SLT PUSH3 0x3DB JUMPI PUSH3 0x3DA PUSH3 0x281 JUMP JUMPDEST JUMPDEST DUP2 MLOAD PUSH3 0x3ED DUP5 DUP3 PUSH1 0x20 DUP7 ADD PUSH3 0x34F JUMP JUMPDEST SWAP2 POP POP SWAP3 SWAP2 POP POP JUMP JUMPDEST PUSH1 0x0 DUP2 SWAP1 POP SWAP2 SWAP1 POP JUMP JUMPDEST PUSH3 0x40B DUP2 PUSH3 0x3F6 JUMP JUMPDEST DUP2 EQ PUSH3 0x417 JUMPI PUSH1 0x0 DUP1 REVERT JUMPDEST POP JUMP JUMPDEST PUSH1 0x0 DUP2 MLOAD SWAP1 POP PUSH3 0x42B DUP2 PUSH3 0x400 JUMP JUMPDEST SWAP3 SWAP2 POP POP JUMP JUMPDEST PUSH1 0x0 DUP1 REVERT JUMPDEST PUSH1 0x0 PUSH8 0xFFFFFFFFFFFFFFFF DUP3 GT ISZERO PUSH3 0x454 JUMPI PUSH3 0x453 PUSH3 0x297 JUMP JUMPDEST JUMPDEST PUSH3 0x45F DUP3 PUSH3 0x286 JUMP JUMPDEST SWAP1 POP PUSH1 0x20 DUP2 ADD SWAP1 POP SWAP2 SWAP1 POP JUMP JUMPDEST PUSH1 0x0 JUMPDEST DUP4 DUP2 LT ISZERO PUSH3 0x48C JUMPI DUP1 DUP3 ADD MLOAD DUP2 DUP5 ADD MSTORE PUSH1 0x20 DUP2 ADD SWAP1 POP PUSH3 0x46F JUMP JUMPDEST PUSH1 0x0 DUP5 DUP5 ADD MSTORE POP POP POP POP JUMP JUMPDEST PUSH1 0x0 PUSH3 0x4AF PUSH3 0x4A9 DUP5 PUSH3 0x436 JUMP JUMPDEST PUSH3 0x2FC JUMP JUMPDEST SWAP1 POP DUP3 DUP2 MSTORE PUSH1 0x20 DUP2 ADD DUP5 DUP5 DUP5 ADD GT ISZERO PUSH3 0x4CE JUMPI PUSH3 0x4CD PUSH3 0x431 JUMP JUMPDEST JUMPDEST PUSH3 0x4DB DUP5 DUP3 DUP6 PUSH3 0x46C JUMP JUMPDEST POP SWAP4 SWAP3 POP POP POP JUMP JUMPDEST PUSH1 0x0 DUP3 PUSH1 0x1F DUP4 ADD SLT PUSH3 0x4FB JUMPI PUSH3 0x4FA PUSH3 0x281 JUMP JUMPDEST JUMPDEST DUP2 MLOAD PUSH3 0x50D DUP5 DUP3 PUSH1 0x20 DUP7 ADD PUSH3 0x498 JUMP JUMPDEST SWAP2 POP POP SWAP3 SWAP2 POP POP JUMP JUMPDEST PUSH1 0x0 DUP1 PUSH1 0x0 DUP1 PUSH1 0x80 DUP6 DUP8 SUB SLT ISZERO PUSH3 0x533 JUMPI PUSH3 0x532 PUSH3 0x212 JUMP JUMPDEST JUMPDEST PUSH1 0x0 PUSH3 0x543 DUP8 DUP3 DUP9 ADD PUSH3 0x26A JUMP JUMPDEST SWAP5 POP POP PUSH1 0x20 DUP6 ADD MLOAD PUSH8 0xFFFFFFFFFFFFFFFF DUP2 GT ISZERO PUSH3 0x567 JUMPI PUSH3 0x566 PUSH3 0x217 JUMP JUMPDEST JUMPDEST PUSH3 0x575 DUP8 DUP3 DUP9 ADD PUSH3 0x3C3 JUMP JUMPDEST SWAP4 POP POP PUSH1 0x40 PUSH3 0x588 DUP8 DUP3 DUP9 ADD PUSH3 0x41A JUMP JUMPDEST SWAP3 POP POP PUSH1 0x60 DUP6 ADD MLOAD PUSH8 0xFFFFFFFFFFFFFFFF DUP2 GT ISZERO PUSH3 0x5AC JUMPI PUSH3 0x5AB PUSH3 0x217 JUMP JUMPDEST JUMPDEST PUSH3 0x5BA DUP8 DUP3 DUP9 ADD PUSH3 0x4E3 JUMP JUMPDEST SWAP2 POP POP SWAP3 SWAP6 SWAP2 SWAP5 POP SWAP3 POP JUMP JUMPDEST PUSH1 0x0 DUP2 MLOAD SWAP1 POP SWAP2 SWAP1 POP JUMP JUMPDEST PUSH32 0x4E487B7100000000000000000000000000000000000000000000000000000000 PUSH1 0x0 MSTORE PUSH1 0x22 PUSH1 0x4 MSTORE PUSH1 0x24 PUSH1 0x0 REVERT JUMPDEST PUSH1 0x0 PUSH1 0x2 DUP3 DIV SWAP1 POP PUSH1 0x1 DUP3 AND DUP1 PUSH3 0x619 JUMPI PUSH1 0x7F DUP3 AND SWAP2 POP JUMPDEST PUSH1 0x20 DUP3 LT DUP2 SUB PUSH3 0x62F JUMPI PUSH3 0x62E PUSH3 0x5D1 JUMP JUMPDEST JUMPDEST POP SWAP2 SWAP1 POP JUMP JUMPDEST PUSH1 0x0 DUP2 SWAP1 POP DUP2 PUSH1 0x0 MSTORE PUSH1 0x20 PUSH1 0x0 KECCAK256 SWAP1 POP SWAP2 SWAP1 POP JUMP JUMPDEST PUSH1 0x0 PUSH1 0x20 PUSH1 0x1F DUP4 ADD DIV SWAP1 POP SWAP2 SWAP1 POP JUMP JUMPDEST PUSH1 0x0 DUP3 DUP3 SHL SWAP1 POP SWAP3 SWAP2 POP POP JUMP JUMPDEST PUSH1 0x0 PUSH1 0x8 DUP4 MUL PUSH3 0x699 PUSH32 0xFFFFFFFFFFFFFFFFFFFFFFFFFFFFFFFFFFFFFFFFFFFFFFFFFFFFFFFFFFFFFFFF DUP3 PUSH3 0x65A JUMP JUMPDEST PUSH3 0x6A5 DUP7 DUP4 PUSH3 0x65A JUMP JUMPDEST SWAP6 POP DUP1 NOT DUP5 AND SWAP4 POP DUP1 DUP7 AND DUP5 OR SWAP3 POP POP POP SWAP4 SWAP3 POP POP POP JUMP JUMPDEST PUSH1 0x0 DUP2 SWAP1 POP SWAP2 SWAP1 POP JUMP JUMPDEST PUSH1 0x0 PUSH3 0x6E8 PUSH3 0x6E2 PUSH3 0x6DC DUP5 PUSH3 0x3F6 JUMP JUMPDEST PUSH3 0x6BD JUMP JUMPDEST PUSH3 0x3F6 JUMP JUMPDEST SWAP1 POP SWAP2 SWAP1 POP JUMP JUMPDEST PUSH1 0x0 DUP2 SWAP1 POP SWAP2 SWAP1 POP JUMP JUMPDEST PUSH3 0x704 DUP4 PUSH3 0x6C7 JUMP JUMPDEST PUSH3 0x71C PUSH3 0x713 DUP3 PUSH3 0x6EF JUMP JUMPDEST DUP5 DUP5 SLOAD PUSH3 0x667 JUMP JUMPDEST DUP3 SSTORE POP POP POP POP JUMP JUMPDEST PUSH1 0x0 SWAP1 JUMP JUMPDEST PUSH3 0x733 PUSH3 0x724 JUMP JUMPDEST PUSH3 0x740 DUP2 DUP5 DUP5 PUSH3 0x6F9 JUMP JUMPDEST POP POP POP JUMP JUMPDEST JUMPDEST DUP2 DUP2 LT ISZERO PUSH3 0x768 JUMPI PUSH3 0x75C PUSH1 0x0 DUP3 PUSH3 0x729 JUMP JUMPDEST PUSH1 0x1 DUP2 ADD SWAP1 POP PUSH3 0x746 JUMP JUMPDEST POP POP JUMP JUMPDEST PUSH1 0x1F DUP3 GT ISZERO PUSH3 0x7B7 JUMPI PUSH3 0x781 DUP2 PUSH3 0x635 JUMP JUMPDEST PUSH3 0x78C DUP5 PUSH3 0x64A JUMP JUMPDEST DUP2 ADD PUSH1 0x20 DUP6 LT ISZERO PUSH3 0x79C JUMPI DUP2 SWAP1 POP JUMPDEST PUSH3 0x7B4 PUSH3 0x7AB DUP6 PUSH3 0x64A JUMP JUMPDEST DUP4 ADD DUP3 PUSH3 0x745 JUMP JUMPDEST POP POP JUMPDEST POP POP POP JUMP JUMPDEST PUSH1 0x0 DUP3 DUP3 SHR SWAP1 POP SWAP3 SWAP2 POP POP JUMP JUMPDEST PUSH1 0x0 PUSH3 0x7DC PUSH1 0x0 NOT DUP5 PUSH1 0x8 MUL PUSH3 0x7BC JUMP JUMPDEST NOT DUP1 DUP4 AND SWAP2 POP POP SWAP3 SWAP2 POP POP JUMP JUMPDEST PUSH1 0x0 PUSH3 0x7F7 DUP4 DUP4 PUSH3 0x7C9 JUMP JUMPDEST SWAP2 POP DUP3 PUSH1 0x2 MUL DUP3 OR SWAP1 POP SWAP3 SWAP2 POP POP JUMP JUMPDEST PUSH3 0x812 DUP3 PUSH3 0x5C6 JUMP JUMPDEST PUSH8 0xFFFFFFFFFFFFFFFF DUP2 GT ISZERO PUSH3 0x82E JUMPI PUSH3 0x82D PUSH3 0x297 JUMP JUMPDEST JUMPDEST PUSH3 0x83A DUP3 SLOAD PUSH3 0x600 JUMP JUMPDEST PUSH3 0x847 DUP3 DUP3 DUP6 PUSH3 0x76C JUMP JUMPDEST PUSH1 0x0 PUSH1 0x20 SWAP1 POP PUSH1 0x1F DUP4 GT PUSH1 0x1 DUP2 EQ PUSH3 0x87F JUMPI PUSH1 0x0 DUP5 ISZERO PUSH3 0x86A JUMPI DUP3 DUP8 ADD MLOAD SWAP1 POP JUMPDEST PUSH3 0x876 DUP6 DUP3 PUSH3 0x7E9 JUMP JUMPDEST DUP7 SSTORE POP PUSH3 0x8E6 JUMP JUMPDEST PUSH1 0x1F NOT DUP5 AND PUSH3 0x88F DUP7 PUSH3 0x635 JUMP JUMPDEST PUSH1 0x0 JUMPDEST DUP3 DUP2 LT ISZERO PUSH3 0x8B9 JUMPI DUP5 DUP10 ADD MLOAD DUP3 SSTORE PUSH1 0x1 DUP3 ADD SWAP2 POP PUSH1 0x20 DUP6 ADD SWAP5 POP PUSH1 0x20 DUP2 ADD SWAP1 POP PUSH3 0x892 JUMP JUMPDEST DUP7 DUP4 LT ISZERO PUSH3 0x8D9 JUMPI DUP5 DUP10 ADD MLOAD PUSH3 0x8D5 PUSH1 0x1F DUP10 AND DUP3 PUSH3 0x7C9 JUMP JUMPDEST DUP4 SSTORE POP JUMPDEST PUSH1 0x1 PUSH1 0x2 DUP9 MUL ADD DUP9 SSTORE POP POP POP JUMPDEST POP POP POP POP POP POP JUMP JUMPDEST PUSH32 0x4E487B7100000000000000000000000000000000000000000000000000000000 PUSH1 0x0 MSTORE PUSH1 0x21 PUSH1 0x4 MSTORE PUSH1 0x24 PUSH1 0x0 REVERT JUMPDEST PUSH32 0x4E487B7100000000000000000000000000000000000000000000000000000000 PUSH1 0x0 MSTORE PUSH1 0x32 PUSH1 0x4 MSTORE PUSH1 0x24 PUSH1 0x0 REVERT JUMPDEST PUSH1 0x0 DUP3 DUP3 MSTORE PUSH1 0x20 DUP3 ADD SWAP1 POP SWAP3 SWAP2 POP POP JUMP JUMPDEST PUSH32 0x5472616E7366657220616D6F756E74206973206C657373207468616E20636F6E PUSH1 0x0 DUP3 ADD MSTORE PUSH32 0x747261637420616D6F756E740000000000000000000000000000000000000000 PUSH1 0x20 DUP3 ADD MSTORE POP JUMP JUMPDEST PUSH1 0x0 PUSH3 0x9BB PUSH1 0x2C DUP4 PUSH3 0x94C JUMP JUMPDEST SWAP2 POP PUSH3 0x9C8 DUP3 PUSH3 0x95D JUMP JUMPDEST PUSH1 0x40 DUP3 ADD SWAP1 POP SWAP2 SWAP1 POP JUMP JUMPDEST PUSH1 0x0 PUSH1 0x20 DUP3 ADD SWAP1 POP DUP2 DUP2 SUB PUSH1 0x0 DUP4 ADD MSTORE PUSH3 0x9EE DUP2 PUSH3 0x9AC JUMP JUMPDEST SWAP1 POP SWAP2 SWAP1 POP JUMP JUMPDEST PUSH2 0x121F DUP1 PUSH3 0xA05 PUSH1 0x0 CODECOPY PUSH1 0x0 RETURN INVALID PUSH1 0x80 PUSH1 0x40 MSTORE CALLVALUE DUP1 ISZERO PUSH2 0x10 JUMPI PUSH1 0x0 DUP1 REVERT JUMPDEST POP PUSH1 0x4 CALLDATASIZE LT PUSH2 0x93 JUMPI PUSH1 0x0 CALLDATALOAD PUSH1 0xE0 SHR DUP1 PUSH4 0x7CCBBA7A GT PUSH2 0x66 JUMPI DUP1 PUSH4 0x7CCBBA7A EQ PUSH2 0x10C JUMPI DUP1 PUSH4 0xA37DDA2C EQ PUSH2 0x116 JUMPI DUP1 PUSH4 0xAA8C217C EQ PUSH2 0x134 JUMPI DUP1 PUSH4 0xC19D93FB EQ PUSH2 0x152 JUMPI DUP1 PUSH4 0xD5025625 EQ PUSH2 0x170 JUMPI PUSH2 0x93 JUMP JUMPDEST DUP1 PUSH4 0x9EEF43E EQ PUSH2 0x98 JUMPI DUP1 PUSH4 0x109E94CF EQ PUSH2 0xC8 JUMPI DUP1 PUSH4 0x4B9F5C98 EQ PUSH2 0xE6 JUMPI DUP1 PUSH4 0x6DAA2D44 EQ PUSH2 0x102 JUMPI JUMPDEST PUSH1 0x0 DUP1 REVERT JUMPDEST PUSH2 0xB2 PUSH1 0x4 DUP1 CALLDATASIZE SUB DUP2 ADD SWAP1 PUSH2 0xAD SWAP2 SWAP1 PUSH2 0xB51 JUMP JUMPDEST PUSH2 0x18E JUMP JUMPDEST PUSH1 0x40 MLOAD PUSH2 0xBF SWAP2 SWAP1 PUSH2 0xB99 JUMP JUMPDEST PUSH1 0x40 MLOAD DUP1 SWAP2 SUB SWAP1 RETURN JUMPDEST PUSH2 0xD0 PUSH2 0x1AE JUMP JUMPDEST PUSH1 0x40 MLOAD PUSH2 0xDD SWAP2 SWAP1 PUSH2 0xBC3 JUMP JUMPDEST PUSH1 0x40 MLOAD DUP1 SWAP2 SUB SWAP1 RETURN JUMPDEST PUSH2 0x100 PUSH1 0x4 DUP1 CALLDATASIZE SUB DUP2 ADD SWAP1 PUSH2 0xFB SWAP2 SWAP1 PUSH2 0xC0A JUMP JUMPDEST PUSH2 0x1D2 JUMP JUMPDEST STOP JUMPDEST PUSH2 0x10A PUSH2 0x33B JUMP JUMPDEST STOP JUMPDEST PUSH2 0x114 PUSH2 0x4FB JUMP JUMPDEST STOP JUMPDEST PUSH2 0x11E PUSH2 0x60F JUMP JUMPDEST PUSH1 0x40 MLOAD PUSH2 0x12B SWAP2 SWAP1 PUSH2 0xBC3 JUMP JUMPDEST PUSH1 0x40 MLOAD DUP1 SWAP2 SUB SWAP1 RETURN JUMPDEST PUSH2 0x13C PUSH2 0x635 JUMP JUMPDEST PUSH1 0x40 MLOAD PUSH2 0x149 SWAP2 SWAP1 PUSH2 0xC50 JUMP JUMPDEST PUSH1 0x40 MLOAD DUP1 SWAP2 SUB SWAP1 RETURN JUMPDEST PUSH2 0x15A PUSH2 0x63B JUMP JUMPDEST PUSH1 0x40 MLOAD PUSH2 0x167 SWAP2 SWAP1 PUSH2 0xCE2 JUMP JUMPDEST PUSH1 0x40 MLOAD DUP1 SWAP2 SUB SWAP1 RETURN JUMPDEST PUSH2 0x178 PUSH2 0x64E JUMP JUMPDEST PUSH1 0x40 MLOAD PUSH2 0x185 SWAP2 SWAP1 PUSH2 0xD8D JUMP JUMPDEST PUSH1 0x40 MLOAD DUP1 SWAP2 SUB SWAP1 RETURN JUMPDEST PUSH1 0x7 PUSH1 0x20 MSTORE DUP1 PUSH1 0x0 MSTORE PUSH1 0x40 PUSH1 0x0 KECCAK256 PUSH1 0x0 SWAP2 POP SLOAD SWAP1 PUSH2 0x100 EXP SWAP1 DIV PUSH1 0xFF AND DUP2 JUMP JUMPDEST PUSH1 0x0 DUP1 SLOAD SWAP1 PUSH2 0x100 EXP SWAP1 DIV PUSH20 0xFFFFFFFFFFFFFFFFFFFFFFFFFFFFFFFFFFFFFFFF AND DUP2 JUMP JUMPDEST PUSH1 0x2 PUSH1 0x0 CALLER PUSH20 0xFFFFFFFFFFFFFFFFFFFFFFFFFFFFFFFFFFFFFFFF AND PUSH20 0xFFFFFFFFFFFFFFFFFFFFFFFFFFFFFFFFFFFFFFFF AND DUP2 MSTORE PUSH1 0x20 ADD SWAP1 DUP2 MSTORE PUSH1 0x20 ADD PUSH1 0x0 KECCAK256 PUSH1 0x0 SWAP1 SLOAD SWAP1 PUSH2 0x100 EXP SWAP1 DIV PUSH1 0xFF AND PUSH2 0x25E JUMPI PUSH1 0x40 MLOAD PUSH32 0x8C379A000000000000000000000000000000000000000000000000000000000 DUP2 MSTORE PUSH1 0x4 ADD PUSH2 0x255 SWAP1 PUSH2 0xDFB JUMP JUMPDEST PUSH1 0x40 MLOAD DUP1 SWAP2 SUB SWAP1 REVERT JUMPDEST PUSH1 0x1 PUSH1 0x7 PUSH1 0x0 CALLER PUSH20 0xFFFFFFFFFFFFFFFFFFFFFFFFFFFFFFFFFFFFFFFF AND PUSH20 0xFFFFFFFFFFFFFFFFFFFFFFFFFFFFFFFFFFFFFFFF AND DUP2 MSTORE PUSH1 0x20 ADD SWAP1 DUP2 MSTORE PUSH1 0x20 ADD PUSH1 0x0 KECCAK256 PUSH1 0x0 PUSH2 0x100 EXP DUP2 SLOAD DUP2 PUSH1 0xFF MUL NOT AND SWAP1 DUP4 ISZERO ISZERO MUL OR SWAP1 SSTORE POP PUSH32 0x16A9AA39AF49F169911E977347975198C503525F7240D6892A626F0227642FCE CALLER PUSH1 0x40 MLOAD PUSH2 0x2E5 SWAP2 SWAP1 PUSH2 0xBC3 JUMP JUMPDEST PUSH1 0x40 MLOAD DUP1 SWAP2 SUB SWAP1 LOG1 PUSH1 0x9 PUSH1 0x0 DUP2 SLOAD DUP1 SWAP3 SWAP2 SWAP1 PUSH2 0x300 SWAP1 PUSH2 0xE4A JUMP JUMPDEST SWAP2 SWAP1 POP SSTORE POP DUP1 ISZERO PUSH2 0x324 JUMPI PUSH1 0x8 PUSH1 0x0 DUP2 SLOAD DUP1 SWAP3 SWAP2 SWAP1 PUSH2 0x31E SWAP1 PUSH2 0xE4A JUMP JUMPDEST SWAP2 SWAP1 POP SSTORE POP JUMPDEST PUSH1 0x3 SLOAD PUSH1 0x9 SLOAD SUB PUSH2 0x338 JUMPI PUSH2 0x337 PUSH2 0x6DC JUMP JUMPDEST JUMPDEST POP JUMP JUMPDEST PUSH1 0x0 DUP1 SLOAD SWAP1 PUSH2 0x100 EXP SWAP1 DIV PUSH20 0xFFFFFFFFFFFFFFFFFFFFFFFFFFFFFFFFFFFFFFFF AND PUSH20 0xFFFFFFFFFFFFFFFFFFFFFFFFFFFFFFFFFFFFFFFF AND CALLER PUSH20 0xFFFFFFFFFFFFFFFFFFFFFFFFFFFFFFFFFFFFFFFF AND EQ DUP1 PUSH2 0x3E2 JUMPI POP PUSH1 0x1 PUSH1 0x0 SWAP1 SLOAD SWAP1 PUSH2 0x100 EXP SWAP1 DIV PUSH20 0xFFFFFFFFFFFFFFFFFFFFFFFFFFFFFFFFFFFFFFFF AND PUSH20 0xFFFFFFFFFFFFFFFFFFFFFFFFFFFFFFFFFFFFFFFF AND CALLER PUSH20 0xFFFFFFFFFFFFFFFFFFFFFFFFFFFFFFFFFFFFFFFF AND EQ JUMPDEST PUSH2 0x421 JUMPI PUSH1 0x40 MLOAD PUSH32 0x8C379A000000000000000000000000000000000000000000000000000000000 DUP2 MSTORE PUSH1 0x4 ADD PUSH2 0x418 SWAP1 PUSH2 0xF04 JUMP JUMPDEST PUSH1 0x40 MLOAD DUP1 SWAP2 SUB SWAP1 REVERT JUMPDEST PUSH1 0x0 PUSH1 0x3 DUP2 GT ISZERO PUSH2 0x435 JUMPI PUSH2 0x434 PUSH2 0xC6B JUMP JUMPDEST JUMPDEST PUSH1 0x6 PUSH1 0x0 SWAP1 SLOAD SWAP1 PUSH2 0x100 EXP SWAP1 DIV PUSH1 0xFF AND PUSH1 0x3 DUP2 GT ISZERO PUSH2 0x457 JUMPI PUSH2 0x456 PUSH2 0xC6B JUMP JUMPDEST JUMPDEST EQ PUSH2 0x497 JUMPI PUSH1 0x40 MLOAD PUSH32 0x8C379A000000000000000000000000000000000000000000000000000000000 DUP2 MSTORE PUSH1 0x4 ADD PUSH2 0x48E SWAP1 PUSH2 0xF96 JUMP JUMPDEST PUSH1 0x40 MLOAD DUP1 SWAP2 SUB SWAP1 REVERT JUMPDEST PUSH1 0x1 PUSH1 0x6 PUSH1 0x0 PUSH2 0x100 EXP DUP2 SLOAD DUP2 PUSH1 0xFF MUL NOT AND SWAP1 DUP4 PUSH1 0x3 DUP2 GT ISZERO PUSH2 0x4BD JUMPI PUSH2 0x4BC PUSH2 0xC6B JUMP JUMPDEST JUMPDEST MUL OR SWAP1 SSTORE POP PUSH32 0xB3CD97B16A08A5C77357C276D248827AD32DFD56060F7C55D6255537BA3D962 CALLER PUSH1 0x40 MLOAD PUSH2 0x4F1 SWAP2 SWAP1 PUSH2 0xBC3 JUMP JUMPDEST PUSH1 0x40 MLOAD DUP1 SWAP2 SUB SWAP1 LOG1 JUMP JUMPDEST PUSH1 0x0 DUP1 SLOAD SWAP1 PUSH2 0x100 EXP SWAP1 DIV PUSH20 0xFFFFFFFFFFFFFFFFFFFFFFFFFFFFFFFFFFFFFFFF AND PUSH20 0xFFFFFFFFFFFFFFFFFFFFFFFFFFFFFFFFFFFFFFFF AND CALLER PUSH20 0xFFFFFFFFFFFFFFFFFFFFFFFFFFFFFFFFFFFFFFFF AND EQ PUSH2 0x589 JUMPI PUSH1 0x40 MLOAD PUSH32 0x8C379A000000000000000000000000000000000000000000000000000000000 DUP2 MSTORE PUSH1 0x4 ADD PUSH2 0x580 SWAP1 PUSH2 0x1028 JUMP JUMPDEST PUSH1 0x40 MLOAD DUP1 SWAP2 SUB SWAP1 REVERT JUMPDEST PUSH2 0x5C7 PUSH1 0x40 MLOAD DUP1 PUSH1 0x40 ADD PUSH1 0x40 MSTORE DUP1 PUSH1 0x1C DUP2 MSTORE PUSH1 0x20 ADD PUSH32 0x696E7369646520636C69656E7420617070726F76616C20737461727400000000 DUP2 MSTORE POP PUSH2 0x738 JUMP JUMPDEST PUSH2 0x5CF PUSH2 0x7D1 JUMP JUMPDEST PUSH2 0x60D PUSH1 0x40 MLOAD DUP1 PUSH1 0x40 ADD PUSH1 0x40 MSTORE DUP1 PUSH1 0x1A DUP2 MSTORE PUSH1 0x20 ADD PUSH32 0x696E7369646520636C69656E7420617070726F76616C20656E64000000000000 DUP2 MSTORE POP PUSH2 0x738 JUMP JUMPDEST JUMP JUMPDEST PUSH1 0x1 PUSH1 0x0 SWAP1 SLOAD SWAP1 PUSH2 0x100 EXP SWAP1 DIV PUSH20 0xFFFFFFFFFFFFFFFFFFFFFFFFFFFFFFFFFFFFFFFF AND DUP2 JUMP JUMPDEST PUSH1 0x4 SLOAD DUP2 JUMP JUMPDEST PUSH1 0x6 PUSH1 0x0 SWAP1 SLOAD SWAP1 PUSH2 0x100 EXP SWAP1 DIV PUSH1 0xFF AND DUP2 JUMP JUMPDEST PUSH1 0x5 DUP1 SLOAD PUSH2 0x65B SWAP1 PUSH2 0x1077 JUMP JUMPDEST DUP1 PUSH1 0x1F ADD PUSH1 0x20 DUP1 SWAP2 DIV MUL PUSH1 0x20 ADD PUSH1 0x40 MLOAD SWAP1 DUP2 ADD PUSH1 0x40 MSTORE DUP1 SWAP3 SWAP2 SWAP1 DUP2 DUP2 MSTORE PUSH1 0x20 ADD DUP3 DUP1 SLOAD PUSH2 0x687 SWAP1 PUSH2 0x1077 JUMP JUMPDEST DUP1 ISZERO PUSH2 0x6D4 JUMPI DUP1 PUSH1 0x1F LT PUSH2 0x6A9 JUMPI PUSH2 0x100 DUP1 DUP4 SLOAD DIV MUL DUP4 MSTORE SWAP2 PUSH1 0x20 ADD SWAP2 PUSH2 0x6D4 JUMP JUMPDEST DUP3 ADD SWAP2 SWAP1 PUSH1 0x0 MSTORE PUSH1 0x20 PUSH1 0x0 KECCAK256 SWAP1 JUMPDEST DUP2 SLOAD DUP2 MSTORE SWAP1 PUSH1 0x1 ADD SWAP1 PUSH1 0x20 ADD DUP1 DUP4 GT PUSH2 0x6B7 JUMPI DUP3 SWAP1 SUB PUSH1 0x1F AND DUP3 ADD SWAP2 JUMPDEST POP POP POP POP POP DUP2 JUMP JUMPDEST PUSH1 0x2 PUSH1 0x3 SLOAD PUSH2 0x6EB SWAP2 SWAP1 PUSH2 0x10D7 JUMP JUMPDEST PUSH1 0x8 SLOAD GT ISZERO PUSH2 0x701 JUMPI PUSH2 0x6FC PUSH2 0x7D1 JUMP JUMPDEST PUSH2 0x70A JUMP JUMPDEST PUSH2 0x709 PUSH2 0x977 JUMP JUMPDEST JUMPDEST PUSH32 0x10CF2E6A49384E0817EF896233ACA0B14F649B81E549F2E6EC5A023F4DAF54C1 PUSH1 0x40 MLOAD PUSH1 0x40 MLOAD DUP1 SWAP2 SUB SWAP1 LOG1 JUMP JUMPDEST PUSH2 0x7CE DUP2 PUSH1 0x40 MLOAD PUSH1 0x24 ADD PUSH2 0x74C SWAP2 SWAP1 PUSH2 0xD8D JUMP JUMPDEST PUSH1 0x40 MLOAD PUSH1 0x20 DUP2 DUP4 SUB SUB DUP2 MSTORE SWAP1 PUSH1 0x40 MSTORE PUSH32 0x41304FAC00000000000000000000000000000000000000000000000000000000 PUSH28 0xFFFFFFFFFFFFFFFFFFFFFFFFFFFFFFFFFFFFFFFFFFFFFFFFFFFFFFFF NOT AND PUSH1 0x20 DUP3 ADD DUP1 MLOAD PUSH28 0xFFFFFFFFFFFFFFFFFFFFFFFFFFFFFFFFFFFFFFFFFFFFFFFFFFFFFFFF DUP4 DUP2 DUP4 AND OR DUP4 MSTORE POP POP POP POP PUSH2 0xA9E JUMP JUMPDEST POP JUMP JUMPDEST PUSH2 0x80F PUSH1 0x40 MLOAD DUP1 PUSH1 0x40 ADD PUSH1 0x40 MSTORE DUP1 PUSH1 0x1C DUP2 MSTORE PUSH1 0x20 ADD PUSH32 0x696E736964652070726F63657373207061796D656E7420737461727400000000 DUP2 MSTORE POP PUSH2 0x738 JUMP JUMPDEST PUSH1 0x0 PUSH1 0x1 PUSH1 0x0 SWAP1 SLOAD SWAP1 PUSH2 0x100 EXP SWAP1 DIV PUSH20 0xFFFFFFFFFFFFFFFFFFFFFFFFFFFFFFFFFFFFFFFF AND PUSH20 0xFFFFFFFFFFFFFFFFFFFFFFFFFFFFFFFFFFFFFFFF AND PUSH1 0x4 SLOAD PUSH1 0x40 MLOAD PUSH2 0x859 SWAP1 PUSH2 0x1139 JUMP JUMPDEST PUSH1 0x0 PUSH1 0x40 MLOAD DUP1 DUP4 SUB DUP2 DUP6 DUP8 GAS CALL SWAP3 POP POP POP RETURNDATASIZE DUP1 PUSH1 0x0 DUP2 EQ PUSH2 0x896 JUMPI PUSH1 0x40 MLOAD SWAP2 POP PUSH1 0x1F NOT PUSH1 0x3F RETURNDATASIZE ADD AND DUP3 ADD PUSH1 0x40 MSTORE RETURNDATASIZE DUP3 MSTORE RETURNDATASIZE PUSH1 0x0 PUSH1 0x20 DUP5 ADD RETURNDATACOPY PUSH2 0x89B JUMP JUMPDEST PUSH1 0x60 SWAP2 POP JUMPDEST POP POP SWAP1 POP DUP1 PUSH2 0x8DF JUMPI PUSH1 0x40 MLOAD PUSH32 0x8C379A000000000000000000000000000000000000000000000000000000000 DUP2 MSTORE PUSH1 0x4 ADD PUSH2 0x8D6 SWAP1 PUSH2 0x119A JUMP JUMPDEST PUSH1 0x40 MLOAD DUP1 SWAP2 SUB SWAP1 REVERT JUMPDEST PUSH1 0x3 PUSH1 0x6 PUSH1 0x0 PUSH2 0x100 EXP DUP2 SLOAD DUP2 PUSH1 0xFF MUL NOT AND SWAP1 DUP4 PUSH1 0x3 DUP2 GT ISZERO PUSH2 0x905 JUMPI PUSH2 0x904 PUSH2 0xC6B JUMP JUMPDEST JUMPDEST MUL OR SWAP1 SSTORE POP PUSH32 0xE06452D00B2B58F14A1FA6D499EA982FF93EA827AE700EA9BA03F4DADDC94BC1 PUSH1 0x40 MLOAD PUSH1 0x40 MLOAD DUP1 SWAP2 SUB SWAP1 LOG1 PUSH2 0x974 PUSH1 0x40 MLOAD DUP1 PUSH1 0x40 ADD PUSH1 0x40 MSTORE DUP1 PUSH1 0x1A DUP2 MSTORE PUSH1 0x20 ADD PUSH32 0x696E736964652070726F63657373207061796D656E7420656E64000000000000 DUP2 MSTORE POP PUSH2 0x738 JUMP JUMPDEST POP JUMP JUMPDEST PUSH1 0x0 DUP1 PUSH1 0x0 SWAP1 SLOAD SWAP1 PUSH2 0x100 EXP SWAP1 DIV PUSH20 0xFFFFFFFFFFFFFFFFFFFFFFFFFFFFFFFFFFFFFFFF AND PUSH20 0xFFFFFFFFFFFFFFFFFFFFFFFFFFFFFFFFFFFFFFFF AND SELFBALANCE PUSH1 0x40 MLOAD PUSH2 0x9BE SWAP1 PUSH2 0x1139 JUMP JUMPDEST PUSH1 0x0 PUSH1 0x40 MLOAD DUP1 DUP4 SUB DUP2 DUP6 DUP8 GAS CALL SWAP3 POP POP POP RETURNDATASIZE DUP1 PUSH1 0x0 DUP2 EQ PUSH2 0x9FB JUMPI PUSH1 0x40 MLOAD SWAP2 POP PUSH1 0x1F NOT PUSH1 0x3F RETURNDATASIZE ADD AND DUP3 ADD PUSH1 0x40 MSTORE RETURNDATASIZE DUP3 MSTORE RETURNDATASIZE PUSH1 0x0 PUSH1 0x20 DUP5 ADD RETURNDATACOPY PUSH2 0xA00 JUMP JUMPDEST PUSH1 0x60 SWAP2 POP JUMPDEST POP POP SWAP1 POP DUP1 PUSH2 0xA44 JUMPI PUSH1 0x40 MLOAD PUSH32 0x8C379A000000000000000000000000000000000000000000000000000000000 DUP2 MSTORE PUSH1 0x4 ADD PUSH2 0xA3B SWAP1 PUSH2 0x119A JUMP JUMPDEST PUSH1 0x40 MLOAD DUP1 SWAP2 SUB SWAP1 REVERT JUMPDEST PUSH1 0x2 PUSH1 0x6 PUSH1 0x0 PUSH2 0x100 EXP DUP2 SLOAD DUP2 PUSH1 0xFF MUL NOT AND SWAP1 DUP4 PUSH1 0x3 DUP2 GT ISZERO PUSH2 0xA6A JUMPI PUSH2 0xA69 PUSH2 0xC6B JUMP JUMPDEST JUMPDEST MUL OR SWAP1 SSTORE POP PUSH32 0x63B958841F79AB97CB5456DA181454B9932C0E15A3B17F1CBD27E2A8BC610437 PUSH1 0x40 MLOAD PUSH1 0x40 MLOAD DUP1 SWAP2 SUB SWAP1 LOG1 POP JUMP JUMPDEST PUSH2 0xAB5 DUP2 PUSH2 0xAAD PUSH2 0xAB8 PUSH2 0xAD9 JUMP JUMPDEST PUSH4 0xFFFFFFFF AND JUMP JUMPDEST POP JUMP JUMPDEST PUSH1 0x0 PUSH11 0x636F6E736F6C652E6C6F67 SWAP1 POP PUSH1 0x0 DUP1 DUP4 MLOAD PUSH1 0x20 DUP6 ADD DUP5 GAS STATICCALL POP POP POP JUMP JUMPDEST PUSH2 0xAE4 DUP2 SWAP1 POP SWAP2 SWAP1 POP JUMP JUMPDEST PUSH2 0xAEC PUSH2 0x11BA JUMP JUMPDEST JUMP JUMPDEST PUSH1 0x0 DUP1 REVERT JUMPDEST PUSH1 0x0 PUSH20 0xFFFFFFFFFFFFFFFFFFFFFFFFFFFFFFFFFFFFFFFF DUP3 AND SWAP1 POP SWAP2 SWAP1 POP JUMP JUMPDEST PUSH1 0x0 PUSH2 0xB1E DUP3 PUSH2 0xAF3 JUMP JUMPDEST SWAP1 POP SWAP2 SWAP1 POP JUMP JUMPDEST PUSH2 0xB2E DUP2 PUSH2 0xB13 JUMP JUMPDEST DUP2 EQ PUSH2 0xB39 JUMPI PUSH1 0x0 DUP1 REVERT JUMPDEST POP JUMP JUMPDEST PUSH1 0x0 DUP2 CALLDATALOAD SWAP1 POP PUSH2 0xB4B DUP2 PUSH2 0xB25 JUMP JUMPDEST SWAP3 SWAP2 POP POP JUMP JUMPDEST PUSH1 0x0 PUSH1 0x20 DUP3 DUP5 SUB SLT ISZERO PUSH2 0xB67 JUMPI PUSH2 0xB66 PUSH2 0xAEE JUMP JUMPDEST JUMPDEST PUSH1 0x0 PUSH2 0xB75 DUP5 DUP3 DUP6 ADD PUSH2 0xB3C JUMP JUMPDEST SWAP2 POP POP SWAP3 SWAP2 POP POP JUMP JUMPDEST PUSH1 0x0 DUP2 ISZERO ISZERO SWAP1 POP SWAP2 SWAP1 POP JUMP JUMPDEST PUSH2 0xB93 DUP2 PUSH2 0xB7E JUMP JUMPDEST DUP3 MSTORE POP POP JUMP JUMPDEST PUSH1 0x0 PUSH1 0x20 DUP3 ADD SWAP1 POP PUSH2 0xBAE PUSH1 0x0 DUP4 ADD DUP5 PUSH2 0xB8A JUMP JUMPDEST SWAP3 SWAP2 POP POP JUMP JUMPDEST PUSH2 0xBBD DUP2 PUSH2 0xB13 JUMP JUMPDEST DUP3 MSTORE POP POP JUMP JUMPDEST PUSH1 0x0 PUSH1 0x20 DUP3 ADD SWAP1 POP PUSH2 0xBD8 PUSH1 0x0 DUP4 ADD DUP5 PUSH2 0xBB4 JUMP JUMPDEST SWAP3 SWAP2 POP POP JUMP JUMPDEST PUSH2 0xBE7 DUP2 PUSH2 0xB7E JUMP JUMPDEST DUP2 EQ PUSH2 0xBF2 JUMPI PUSH1 0x0 DUP1 REVERT JUMPDEST POP JUMP JUMPDEST PUSH1 0x0 DUP2 CALLDATALOAD SWAP1 POP PUSH2 0xC04 DUP2 PUSH2 0xBDE JUMP JUMPDEST SWAP3 SWAP2 POP POP JUMP JUMPDEST PUSH1 0x0 PUSH1 0x20 DUP3 DUP5 SUB SLT ISZERO PUSH2 0xC20 JUMPI PUSH2 0xC1F PUSH2 0xAEE JUMP JUMPDEST JUMPDEST PUSH1 0x0 PUSH2 0xC2E DUP5 DUP3 DUP6 ADD PUSH2 0xBF5 JUMP JUMPDEST SWAP2 POP POP SWAP3 SWAP2 POP POP JUMP JUMPDEST PUSH1 0x0 DUP2 SWAP1 POP SWAP2 SWAP1 POP JUMP JUMPDEST PUSH2 0xC4A DUP2 PUSH2 0xC37 JUMP JUMPDEST DUP3 MSTORE POP POP JUMP JUMPDEST PUSH1 0x0 PUSH1 0x20 DUP3 ADD SWAP1 POP PUSH2 0xC65 PUSH1 0x0 DUP4 ADD DUP5 PUSH2 0xC41 JUMP JUMPDEST SWAP3 SWAP2 POP POP JUMP JUMPDEST PUSH32 0x4E487B7100000000000000000000000000000000000000000000000000000000 PUSH1 0x0 MSTORE PUSH1 0x21 PUSH1 0x4 MSTORE PUSH1 0x24 PUSH1 0x0 REVERT JUMPDEST PUSH1 0x4 DUP2 LT PUSH2 0xCAB JUMPI PUSH2 0xCAA PUSH2 0xC6B JUMP JUMPDEST JUMPDEST POP JUMP JUMPDEST PUSH1 0x0 DUP2 SWAP1 POP PUSH2 0xCBC DUP3 PUSH2 0xC9A JUMP JUMPDEST SWAP2 SWAP1 POP JUMP JUMPDEST PUSH1 0x0 PUSH2 0xCCC DUP3 PUSH2 0xCAE JUMP JUMPDEST SWAP1 POP SWAP2 SWAP1 POP JUMP JUMPDEST PUSH2 0xCDC DUP2 PUSH2 0xCC1 JUMP JUMPDEST DUP3 MSTORE POP POP JUMP JUMPDEST PUSH1 0x0 PUSH1 0x20 DUP3 ADD SWAP1 POP PUSH2 0xCF7 PUSH1 0x0 DUP4 ADD DUP5 PUSH2 0xCD3 JUMP JUMPDEST SWAP3 SWAP2 POP POP JUMP JUMPDEST PUSH1 0x0 DUP2 MLOAD SWAP1 POP SWAP2 SWAP1 POP JUMP JUMPDEST PUSH1 0x0 DUP3 DUP3 MSTORE PUSH1 0x20 DUP3 ADD SWAP1 POP SWAP3 SWAP2 POP POP JUMP JUMPDEST PUSH1 0x0 JUMPDEST DUP4 DUP2 LT ISZERO PUSH2 0xD37 JUMPI DUP1 DUP3 ADD MLOAD DUP2 DUP5 ADD MSTORE PUSH1 0x20 DUP2 ADD SWAP1 POP PUSH2 0xD1C JUMP JUMPDEST PUSH1 0x0 DUP5 DUP5 ADD MSTORE POP POP POP POP JUMP JUMPDEST PUSH1 0x0 PUSH1 0x1F NOT PUSH1 0x1F DUP4 ADD AND SWAP1 POP SWAP2 SWAP1 POP JUMP JUMPDEST PUSH1 0x0 PUSH2 0xD5F DUP3 PUSH2 0xCFD JUMP JUMPDEST PUSH2 0xD69 DUP2 DUP6 PUSH2 0xD08 JUMP JUMPDEST SWAP4 POP PUSH2 0xD79 DUP2 DUP6 PUSH1 0x20 DUP7 ADD PUSH2 0xD19 JUMP JUMPDEST PUSH2 0xD82 DUP2 PUSH2 0xD43 JUMP JUMPDEST DUP5 ADD SWAP2 POP POP SWAP3 SWAP2 POP POP JUMP JUMPDEST PUSH1 0x0 PUSH1 0x20 DUP3 ADD SWAP1 POP DUP2 DUP2 SUB PUSH1 0x0 DUP4 ADD MSTORE PUSH2 0xDA7 DUP2 DUP5 PUSH2 0xD54 JUMP JUMPDEST SWAP1 POP SWAP3 SWAP2 POP POP JUMP JUMPDEST PUSH32 0x4F6E6C792061726269746572732063616E20766F746500000000000000000000 PUSH1 0x0 DUP3 ADD MSTORE POP JUMP JUMPDEST PUSH1 0x0 PUSH2 0xDE5 PUSH1 0x16 DUP4 PUSH2 0xD08 JUMP JUMPDEST SWAP2 POP PUSH2 0xDF0 DUP3 PUSH2 0xDAF JUMP JUMPDEST PUSH1 0x20 DUP3 ADD SWAP1 POP SWAP2 SWAP1 POP JUMP JUMPDEST PUSH1 0x0 PUSH1 0x20 DUP3 ADD SWAP1 POP DUP2 DUP2 SUB PUSH1 0x0 DUP4 ADD MSTORE PUSH2 0xE14 DUP2 PUSH2 0xDD8 JUMP JUMPDEST SWAP1 POP SWAP2 SWAP1 POP JUMP JUMPDEST PUSH32 0x4E487B7100000000000000000000000000000000000000000000000000000000 PUSH1 0x0 MSTORE PUSH1 0x11 PUSH1 0x4 MSTORE PUSH1 0x24 PUSH1 0x0 REVERT JUMPDEST PUSH1 0x0 PUSH2 0xE55 DUP3 PUSH2 0xC37 JUMP JUMPDEST SWAP2 POP PUSH32 0xFFFFFFFFFFFFFFFFFFFFFFFFFFFFFFFFFFFFFFFFFFFFFFFFFFFFFFFFFFFFFFFF DUP3 SUB PUSH2 0xE87 JUMPI PUSH2 0xE86 PUSH2 0xE1B JUMP JUMPDEST JUMPDEST PUSH1 0x1 DUP3 ADD SWAP1 POP SWAP2 SWAP1 POP JUMP JUMPDEST PUSH32 0x4F6E6C7920636C69656E74206F7220667265656C616E6365722063616E207261 PUSH1 0x0 DUP3 ADD MSTORE PUSH32 0x6973652064697370757465000000000000000000000000000000000000000000 PUSH1 0x20 DUP3 ADD MSTORE POP JUMP JUMPDEST PUSH1 0x0 PUSH2 0xEEE PUSH1 0x2B DUP4 PUSH2 0xD08 JUMP JUMPDEST SWAP2 POP PUSH2 0xEF9 DUP3 PUSH2 0xE92 JUMP JUMPDEST PUSH1 0x40 DUP3 ADD SWAP1 POP SWAP2 SWAP1 POP JUMP JUMPDEST PUSH1 0x0 PUSH1 0x20 DUP3 ADD SWAP1 POP DUP2 DUP2 SUB PUSH1 0x0 DUP4 ADD MSTORE PUSH2 0xF1D DUP2 PUSH2 0xEE1 JUMP JUMPDEST SWAP1 POP SWAP2 SWAP1 POP JUMP JUMPDEST PUSH32 0x446973707574652063616E27742062652072616973656420616674657220636F PUSH1 0x0 DUP3 ADD MSTORE PUSH32 0x6D706C6574696F6E206F722063616E63656C6C6174696F6E0000000000000000 PUSH1 0x20 DUP3 ADD MSTORE POP JUMP JUMPDEST PUSH1 0x0 PUSH2 0xF80 PUSH1 0x38 DUP4 PUSH2 0xD08 JUMP JUMPDEST SWAP2 POP PUSH2 0xF8B DUP3 PUSH2 0xF24 JUMP JUMPDEST PUSH1 0x40 DUP3 ADD SWAP1 POP SWAP2 SWAP1 POP JUMP JUMPDEST PUSH1 0x0 PUSH1 0x20 DUP3 ADD SWAP1 POP DUP2 DUP2 SUB PUSH1 0x0 DUP4 ADD MSTORE PUSH2 0xFAF DUP2 PUSH2 0xF73 JUMP JUMPDEST SWAP1 POP SWAP2 SWAP1 POP JUMP JUMPDEST PUSH32 0x4F6E6C7920636C69656E742063616E2070726F6365737320696E7374616E746C PUSH1 0x0 DUP3 ADD MSTORE PUSH32 0x7900000000000000000000000000000000000000000000000000000000000000 PUSH1 0x20 DUP3 ADD MSTORE POP JUMP JUMPDEST PUSH1 0x0 PUSH2 0x1012 PUSH1 0x21 DUP4 PUSH2 0xD08 JUMP JUMPDEST SWAP2 POP PUSH2 0x101D DUP3 PUSH2 0xFB6 JUMP JUMPDEST PUSH1 0x40 DUP3 ADD SWAP1 POP SWAP2 SWAP1 POP JUMP JUMPDEST PUSH1 0x0 PUSH1 0x20 DUP3 ADD SWAP1 POP DUP2 DUP2 SUB PUSH1 0x0 DUP4 ADD MSTORE PUSH2 0x1041 DUP2 PUSH2 0x1005 JUMP JUMPDEST SWAP1 POP SWAP2 SWAP1 POP JUMP JUMPDEST PUSH32 0x4E487B7100000000000000000000000000000000000000000000000000000000 PUSH1 0x0 MSTORE PUSH1 0x22 PUSH1 0x4 MSTORE PUSH1 0x24 PUSH1 0x0 REVERT JUMPDEST PUSH1 0x0 PUSH1 0x2 DUP3 DIV SWAP1 POP PUSH1 0x1 DUP3 AND DUP1 PUSH2 0x108F JUMPI PUSH1 0x7F DUP3 AND SWAP2 POP JUMPDEST PUSH1 0x20 DUP3 LT DUP2 SUB PUSH2 0x10A2 JUMPI PUSH2 0x10A1 PUSH2 0x1048 JUMP JUMPDEST JUMPDEST POP SWAP2 SWAP1 POP JUMP JUMPDEST PUSH32 0x4E487B7100000000000000000000000000000000000000000000000000000000 PUSH1 0x0 MSTORE PUSH1 0x12 PUSH1 0x4 MSTORE PUSH1 0x24 PUSH1 0x0 REVERT JUMPDEST PUSH1 0x0 PUSH2 0x10E2 DUP3 PUSH2 0xC37 JUMP JUMPDEST SWAP2 POP PUSH2 0x10ED DUP4 PUSH2 0xC37 JUMP JUMPDEST SWAP3 POP DUP3 PUSH2 0x10FD JUMPI PUSH2 0x10FC PUSH2 0x10A8 JUMP JUMPDEST JUMPDEST DUP3 DUP3 DIV SWAP1 POP SWAP3 SWAP2 POP POP JUMP JUMPDEST PUSH1 0x0 DUP2 SWAP1 POP SWAP3 SWAP2 POP POP JUMP JUMPDEST POP JUMP JUMPDEST PUSH1 0x0 PUSH2 0x1123 PUSH1 0x0 DUP4 PUSH2 0x1108 JUMP JUMPDEST SWAP2 POP PUSH2 0x112E DUP3 PUSH2 0x1113 JUMP JUMPDEST PUSH1 0x0 DUP3 ADD SWAP1 POP SWAP2 SWAP1 POP JUMP JUMPDEST PUSH1 0x0 PUSH2 0x1144 DUP3 PUSH2 0x1116 JUMP JUMPDEST SWAP2 POP DUP2 SWAP1 POP SWAP2 SWAP1 POP JUMP JUMPDEST PUSH32 0x4661696C656420746F2073656E64206574686572000000000000000000000000 PUSH1 0x0 DUP3 ADD MSTORE POP JUMP JUMPDEST PUSH1 0x0 PUSH2 0x1184 PUSH1 0x14 DUP4 PUSH2 0xD08 JUMP JUMPDEST SWAP2 POP PUSH2 0x118F DUP3 PUSH2 0x114E JUMP JUMPDEST PUSH1 0x20 DUP3 ADD SWAP1 POP SWAP2 SWAP1 POP JUMP JUMPDEST PUSH1 0x0 PUSH1 0x20 DUP3 ADD SWAP1 POP DUP2 DUP2 SUB PUSH1 0x0 DUP4 ADD MSTORE PUSH2 0x11B3 DUP2 PUSH2 0x1177 JUMP JUMPDEST SWAP1 POP SWAP2 SWAP1 POP JUMP JUMPDEST PUSH32 0x4E487B7100000000000000000000000000000000000000000000000000000000 PUSH1 0x0 MSTORE PUSH1 0x51 PUSH1 0x4 MSTORE PUSH1 0x24 PUSH1 0x0 REVERT INVALID LOG2 PUSH5 0x6970667358 0x22 SLT KECCAK256 SWAP4 0xC8 JUMP SWAP12 0x27 0xD6 MUL SWAP12 0xDD TIMESTAMP 0x4F 0xE6 PUSH28 0xE608AA1EAE38072513D7511450C686D9851BF664736F6C6343000818 STOP CALLER "},"methodIdentifiers":{"amount()":"aa8c217c","client()":"109e94cf","clientApproval()":"7ccbba7a","freelancer()":"a37dda2c","hasVoted(address)":"09eef43e","raiseDispute()":"6daa2d44","state()":"c19d93fb","terms()":"d5025625","vote(bool)":"4b9f5c98"}}}}}