{
  "_format": "hh-sol-artifact-1",
  "contractName": "Escrow",
  "sourceName": "contracts/Escrow.sol",
  "abi": [
    {
      "inputs": [
        {
          "internalType": "address",
          "name": "_freelancer",
          "type": "address"
        },
        {
          "internalType": "address[]",
          "name": "_arbiters",
          "type": "address[]"
        },
        {
          "internalType": "uint256",
          "name": "_amount",
          "type": "uint256"
        },
        {
          "internalType": "string",
          "name": "_terms",
          "type": "string"
        }
      ],
      "stateMutability": "payable",
      "type": "constructor"
    },
    {
      "anonymous": false,
      "inputs": [],
      "name": "Cancelled",
      "type": "event"
    },
    {
      "anonymous": false,
      "inputs": [],
      "name": "Completed",
      "type": "event"
    },
    {
      "anonymous": false,
      "inputs": [
        {
          "indexed": false,
          "internalType": "address",
          "name": "",
          "type": "address"
        }
      ],
      "name": "DisputeRaised",
      "type": "event"
    },
    {
      "anonymous": false,
      "inputs": [],
      "name": "DisputeResolved",
      "type": "event"
    },
    {
      "anonymous": false,
      "inputs": [],
      "name": "Initiated",
      "type": "event"
    },
    {
      "anonymous": false,
      "inputs": [
        {
          "indexed": false,
          "internalType": "address",
          "name": "",
          "type": "address"
        }
      ],
      "name": "Voted",
      "type": "event"
    },
    {
      "inputs": [],
      "name": "amount",
      "outputs": [
        {
          "internalType": "uint256",
          "name": "",
          "type": "uint256"
        }
      ],
      "stateMutability": "view",
      "type": "function"
    },
    {
      "inputs": [],
      "name": "client",
      "outputs": [
        {
          "internalType": "address",
          "name": "",
          "type": "address"
        }
      ],
      "stateMutability": "view",
      "type": "function"
    },
    {
      "inputs": [],
      "name": "clientApproval",
      "outputs": [],
      "stateMutability": "nonpayable",
      "type": "function"
    },
    {
      "inputs": [],
      "name": "freelancer",
      "outputs": [
        {
          "internalType": "address",
          "name": "",
          "type": "address"
        }
      ],
      "stateMutability": "view",
      "type": "function"
    },
    {
      "inputs": [
        {
          "internalType": "address",
          "name": "",
          "type": "address"
        }
      ],
      "name": "hasVoted",
      "outputs": [
        {
          "internalType": "bool",
          "name": "",
          "type": "bool"
        }
      ],
      "stateMutability": "view",
      "type": "function"
    },
    {
      "inputs": [],
      "name": "raiseDispute",
      "outputs": [],
      "stateMutability": "nonpayable",
      "type": "function"
    },
    {
      "inputs": [],
      "name": "state",
      "outputs": [
        {
          "internalType": "enum Escrow.State",
          "name": "",
          "type": "uint8"
        }
      ],
      "stateMutability": "view",
      "type": "function"
    },
    {
      "inputs": [],
      "name": "terms",
      "outputs": [
        {
          "internalType": "string",
          "name": "",
          "type": "string"
        }
      ],
      "stateMutability": "view",
      "type": "function"
    },
    {
      "inputs": [
        {
          "internalType": "bool",
          "name": "approve",
          "type": "bool"
        }
      ],
      "name": "vote",
      "outputs": [],
      "stateMutability": "nonpayable",
      "type": "function"
    }
  ],
  "bytecode": "0x608060405260405162001a1438038062001a14833981810160405281019062000029919062000516565b336000806101000a81548173ffffffffffffffffffffffffffffffffffffffff021916908373ffffffffffffffffffffffffffffffffffffffff16021790555083600160006101000a81548173ffffffffffffffffffffffffffffffffffffffff021916908373ffffffffffffffffffffffffffffffffffffffff160217905550816004819055508060059081620000c2919062000807565b506000600660006101000a81548160ff02191690836003811115620000ec57620000eb620008ee565b5b0217905550825160038190555060005b835181101562000189576001600260008684815181106200012257620001216200091d565b5b602002602001015173ffffffffffffffffffffffffffffffffffffffff1673ffffffffffffffffffffffffffffffffffffffff16815260200190815260200160002060006101000a81548160ff0219169083151502179055508080600101915050620000fc565b50600454341015620001d2576040517f08c379a0000000000000000000000000000000000000000000000000000000008152600401620001c990620009d3565b60405180910390fd5b7fe899121c4f1c7f070ab8ee107ad3d28ff5fe98442026a1361d1c1e1ded66e38e60405160405180910390a150505050620009f5565b6000604051905090565b600080fd5b600080fd5b600073ffffffffffffffffffffffffffffffffffffffff82169050919050565b600062000249826200021c565b9050919050565b6200025b816200023c565b81146200026757600080fd5b50565b6000815190506200027b8162000250565b92915050565b600080fd5b6000601f19601f8301169050919050565b7f4e487b7100000000000000000000000000000000000000000000000000000000600052604160045260246000fd5b620002d18262000286565b810181811067ffffffffffffffff82111715620002f357620002f262000297565b5b80604052505050565b60006200030862000208565b9050620003168282620002c6565b919050565b600067ffffffffffffffff82111562000339576200033862000297565b5b602082029050602081019050919050565b600080fd5b60006200036662000360846200031b565b620002fc565b905080838252602082019050602084028301858111156200038c576200038b6200034a565b5b835b81811015620003b95780620003a488826200026a565b8452602084019350506020810190506200038e565b5050509392505050565b600082601f830112620003db57620003da62000281565b5b8151620003ed8482602086016200034f565b91505092915050565b6000819050919050565b6200040b81620003f6565b81146200041757600080fd5b50565b6000815190506200042b8162000400565b92915050565b600080fd5b600067ffffffffffffffff82111562000454576200045362000297565b5b6200045f8262000286565b9050602081019050919050565b60005b838110156200048c5780820151818401526020810190506200046f565b60008484015250505050565b6000620004af620004a98462000436565b620002fc565b905082815260208101848484011115620004ce57620004cd62000431565b5b620004db8482856200046c565b509392505050565b600082601f830112620004fb57620004fa62000281565b5b81516200050d84826020860162000498565b91505092915050565b6000806000806080858703121562000533576200053262000212565b5b600062000543878288016200026a565b945050602085015167ffffffffffffffff81111562000567576200056662000217565b5b6200057587828801620003c3565b935050604062000588878288016200041a565b925050606085015167ffffffffffffffff811115620005ac57620005ab62000217565b5b620005ba87828801620004e3565b91505092959194509250565b600081519050919050565b7f4e487b7100000000000000000000000000000000000000000000000000000000600052602260045260246000fd5b600060028204905060018216806200061957607f821691505b6020821081036200062f576200062e620005d1565b5b50919050565b60008190508160005260206000209050919050565b60006020601f8301049050919050565b600082821b905092915050565b600060088302620006997fffffffffffffffffffffffffffffffffffffffffffffffffffffffffffffffff826200065a565b620006a586836200065a565b95508019841693508086168417925050509392505050565b6000819050919050565b6000620006e8620006e2620006dc84620003f6565b620006bd565b620003f6565b9050919050565b6000819050919050565b6200070483620006c7565b6200071c6200071382620006ef565b84845462000667565b825550505050565b600090565b6200073362000724565b62000740818484620006f9565b505050565b5b8181101562000768576200075c60008262000729565b60018101905062000746565b5050565b601f821115620007b757620007818162000635565b6200078c846200064a565b810160208510156200079c578190505b620007b4620007ab856200064a565b83018262000745565b50505b505050565b600082821c905092915050565b6000620007dc60001984600802620007bc565b1980831691505092915050565b6000620007f78383620007c9565b9150826002028217905092915050565b6200081282620005c6565b67ffffffffffffffff8111156200082e576200082d62000297565b5b6200083a825462000600565b620008478282856200076c565b600060209050601f8311600181146200087f57600084156200086a578287015190505b620008768582620007e9565b865550620008e6565b601f1984166200088f8662000635565b60005b82811015620008b95784890151825560018201915060208501945060208101905062000892565b86831015620008d95784890151620008d5601f891682620007c9565b8355505b6001600288020188555050505b505050505050565b7f4e487b7100000000000000000000000000000000000000000000000000000000600052602160045260246000fd5b7f4e487b7100000000000000000000000000000000000000000000000000000000600052603260045260246000fd5b600082825260208201905092915050565b7f5472616e7366657220616d6f756e74206973206c657373207468616e20636f6e60008201527f747261637420616d6f756e740000000000000000000000000000000000000000602082015250565b6000620009bb602c836200094c565b9150620009c8826200095d565b604082019050919050565b60006020820190508181036000830152620009ee81620009ac565b9050919050565b61100f8062000a056000396000f3fe608060405234801561001057600080fd5b50600436106100935760003560e01c80637ccbba7a116100665780637ccbba7a1461010c578063a37dda2c14610116578063aa8c217c14610134578063c19d93fb14610152578063d50256251461017057610093565b806309eef43e14610098578063109e94cf146100c85780634b9f5c98146100e65780636daa2d4414610102575b600080fd5b6100b260048036038101906100ad9190610970565b61018e565b6040516100bf91906109b8565b60405180910390f35b6100d06101ae565b6040516100dd91906109e2565b60405180910390f35b61010060048036038101906100fb9190610a29565b6101d2565b005b61010a61033b565b005b6101146104fb565b005b61011e610593565b60405161012b91906109e2565b60405180910390f35b61013c6105b9565b6040516101499190610a6f565b60405180910390f35b61015a6105bf565b6040516101679190610b01565b60405180910390f35b6101786105d2565b6040516101859190610bac565b60405180910390f35b60076020528060005260406000206000915054906101000a900460ff1681565b60008054906101000a900473ffffffffffffffffffffffffffffffffffffffff1681565b600260003373ffffffffffffffffffffffffffffffffffffffff1673ffffffffffffffffffffffffffffffffffffffff16815260200190815260200160002060009054906101000a900460ff1661025e576040517f08c379a000000000000000000000000000000000000000000000000000000000815260040161025590610c1a565b60405180910390fd5b6001600760003373ffffffffffffffffffffffffffffffffffffffff1673ffffffffffffffffffffffffffffffffffffffff16815260200190815260200160002060006101000a81548160ff0219169083151502179055507f16a9aa39af49f169911e977347975198c503525f7240d6892a626f0227642fce336040516102e591906109e2565b60405180910390a16009600081548092919061030090610c69565b91905055508015610324576008600081548092919061031e90610c69565b91905055505b6003546009540361033857610337610660565b5b50565b60008054906101000a900473ffffffffffffffffffffffffffffffffffffffff1673ffffffffffffffffffffffffffffffffffffffff163373ffffffffffffffffffffffffffffffffffffffff1614806103e25750600160009054906101000a900473ffffffffffffffffffffffffffffffffffffffff1673ffffffffffffffffffffffffffffffffffffffff163373ffffffffffffffffffffffffffffffffffffffff16145b610421576040517f08c379a000000000000000000000000000000000000000000000000000000000815260040161041890610d23565b60405180910390fd5b6000600381111561043557610434610a8a565b5b600660009054906101000a900460ff16600381111561045757610456610a8a565b5b14610497576040517f08c379a000000000000000000000000000000000000000000000000000000000815260040161048e90610db5565b60405180910390fd5b6001600660006101000a81548160ff021916908360038111156104bd576104bc610a8a565b5b02179055507f0b3cd97b16a08a5c77357c276d248827ad32dfd56060f7c55d6255537ba3d962336040516104f191906109e2565b60405180910390a1565b60008054906101000a900473ffffffffffffffffffffffffffffffffffffffff1673ffffffffffffffffffffffffffffffffffffffff163373ffffffffffffffffffffffffffffffffffffffff1614610589576040517f08c379a000000000000000000000000000000000000000000000000000000000815260040161058090610e47565b60405180910390fd5b6105916106bc565b565b600160009054906101000a900473ffffffffffffffffffffffffffffffffffffffff1681565b60045481565b600660009054906101000a900460ff1681565b600580546105df90610e96565b80601f016020809104026020016040519081016040528092919081815260200182805461060b90610e96565b80156106585780601f1061062d57610100808354040283529160200191610658565b820191906000526020600020905b81548152906001019060200180831161063b57829003601f168201915b505050505081565b600260035461066f9190610ef6565b6008541115610685576106806106bc565b61068e565b61068d6107e6565b5b7f10cf2e6a49384e0817ef896233aca0b14f649b81e549f2e6ec5a023f4daf54c160405160405180910390a1565b6000600160009054906101000a900473ffffffffffffffffffffffffffffffffffffffff1673ffffffffffffffffffffffffffffffffffffffff1660045460405161070690610f58565b60006040518083038185875af1925050503d8060008114610743576040519150601f19603f3d011682016040523d82523d6000602084013e610748565b606091505b505090508061078c576040517f08c379a000000000000000000000000000000000000000000000000000000000815260040161078390610fb9565b60405180910390fd5b6003600660006101000a81548160ff021916908360038111156107b2576107b1610a8a565b5b02179055507fe06452d00b2b58f14a1fa6d499ea982ff93ea827ae700ea9ba03f4daddc94bc160405160405180910390a150565b60008060009054906101000a900473ffffffffffffffffffffffffffffffffffffffff1673ffffffffffffffffffffffffffffffffffffffff164760405161082d90610f58565b60006040518083038185875af1925050503d806000811461086a576040519150601f19603f3d011682016040523d82523d6000602084013e61086f565b606091505b50509050806108b3576040517f08c379a00000000000000000000000000000000000000000000000000000000081526004016108aa90610fb9565b60405180910390fd5b6002600660006101000a81548160ff021916908360038111156108d9576108d8610a8a565b5b02179055507f63b958841f79ab97cb5456da181454b9932c0e15a3b17f1cbd27e2a8bc61043760405160405180910390a150565b600080fd5b600073ffffffffffffffffffffffffffffffffffffffff82169050919050565b600061093d82610912565b9050919050565b61094d81610932565b811461095857600080fd5b50565b60008135905061096a81610944565b92915050565b6000602082840312156109865761098561090d565b5b60006109948482850161095b565b91505092915050565b60008115159050919050565b6109b28161099d565b82525050565b60006020820190506109cd60008301846109a9565b92915050565b6109dc81610932565b82525050565b60006020820190506109f760008301846109d3565b92915050565b610a068161099d565b8114610a1157600080fd5b50565b600081359050610a23816109fd565b92915050565b600060208284031215610a3f57610a3e61090d565b5b6000610a4d84828501610a14565b91505092915050565b6000819050919050565b610a6981610a56565b82525050565b6000602082019050610a846000830184610a60565b92915050565b7f4e487b7100000000000000000000000000000000000000000000000000000000600052602160045260246000fd5b60048110610aca57610ac9610a8a565b5b50565b6000819050610adb82610ab9565b919050565b6000610aeb82610acd565b9050919050565b610afb81610ae0565b82525050565b6000602082019050610b166000830184610af2565b92915050565b600081519050919050565b600082825260208201905092915050565b60005b83811015610b56578082015181840152602081019050610b3b565b60008484015250505050565b6000601f19601f8301169050919050565b6000610b7e82610b1c565b610b888185610b27565b9350610b98818560208601610b38565b610ba181610b62565b840191505092915050565b60006020820190508181036000830152610bc68184610b73565b905092915050565b7f4f6e6c792061726269746572732063616e20766f746500000000000000000000600082015250565b6000610c04601683610b27565b9150610c0f82610bce565b602082019050919050565b60006020820190508181036000830152610c3381610bf7565b9050919050565b7f4e487b7100000000000000000000000000000000000000000000000000000000600052601160045260246000fd5b6000610c7482610a56565b91507fffffffffffffffffffffffffffffffffffffffffffffffffffffffffffffffff8203610ca657610ca5610c3a565b5b600182019050919050565b7f4f6e6c7920636c69656e74206f7220667265656c616e6365722063616e20726160008201527f6973652064697370757465000000000000000000000000000000000000000000602082015250565b6000610d0d602b83610b27565b9150610d1882610cb1565b604082019050919050565b60006020820190508181036000830152610d3c81610d00565b9050919050565b7f446973707574652063616e27742062652072616973656420616674657220636f60008201527f6d706c6574696f6e206f722063616e63656c6c6174696f6e0000000000000000602082015250565b6000610d9f603883610b27565b9150610daa82610d43565b604082019050919050565b60006020820190508181036000830152610dce81610d92565b9050919050565b7f4f6e6c7920636c69656e742063616e2070726f6365737320696e7374616e746c60008201527f7900000000000000000000000000000000000000000000000000000000000000602082015250565b6000610e31602183610b27565b9150610e3c82610dd5565b604082019050919050565b60006020820190508181036000830152610e6081610e24565b9050919050565b7f4e487b7100000000000000000000000000000000000000000000000000000000600052602260045260246000fd5b60006002820490506001821680610eae57607f821691505b602082108103610ec157610ec0610e67565b5b50919050565b7f4e487b7100000000000000000000000000000000000000000000000000000000600052601260045260246000fd5b6000610f0182610a56565b9150610f0c83610a56565b925082610f1c57610f1b610ec7565b5b828204905092915050565b600081905092915050565b50565b6000610f42600083610f27565b9150610f4d82610f32565b600082019050919050565b6000610f6382610f35565b9150819050919050565b7f4661696c656420746f2073656e64206574686572000000000000000000000000600082015250565b6000610fa3601483610b27565b9150610fae82610f6d565b602082019050919050565b60006020820190508181036000830152610fd281610f96565b905091905056fea264697066735822122077699e25c7cede1cdec5ae705e013e428b62665924749135ffdeb66a098986f264736f6c63430008180033",
  "linkReferences": {},
  "deployedLinkReferences": {}
}