{
  "_format": "hh-sol-artifact-1",
  "contractName": "Escrow",
  "sourceName": "contracts/Escrow.sol",
  "abi": [
    {
      "inputs": [
        {
          "internalType": "address",
          "name": "_freelancer",
          "type": "address"
        },
        {
          "internalType": "address[]",
          "name": "_arbiters",
          "type": "address[]"
        },
        {
          "internalType": "uint256",
          "name": "_amount",
          "type": "uint256"
        },
        {
          "internalType": "string",
          "name": "_terms",
          "type": "string"
        }
      ],
      "stateMutability": "payable",
      "type": "constructor"
    },
    {
      "anonymous": false,
      "inputs": [],
      "name": "Cancelled",
      "type": "event"
    },
    {
      "anonymous": false,
      "inputs": [],
      "name": "Completed",
      "type": "event"
    },
    {
      "anonymous": false,
      "inputs": [
        {
          "indexed": false,
          "internalType": "address",
          "name": "",
          "type": "address"
        }
      ],
      "name": "DisputeRaised",
      "type": "event"
    },
    {
      "anonymous": false,
      "inputs": [],
      "name": "DisputeResolved",
      "type": "event"
    },
    {
      "anonymous": false,
      "inputs": [],
      "name": "Initiated",
      "type": "event"
    },
    {
      "anonymous": false,
      "inputs": [
        {
          "indexed": false,
          "internalType": "address",
          "name": "",
          "type": "address"
        }
      ],
      "name": "Voted",
      "type": "event"
    },
    {
      "inputs": [],
      "name": "amount",
      "outputs": [
        {
          "internalType": "uint256",
          "name": "",
          "type": "uint256"
        }
      ],
      "stateMutability": "view",
      "type": "function"
    },
    {
      "inputs": [],
      "name": "client",
      "outputs": [
        {
          "internalType": "address",
          "name": "",
          "type": "address"
        }
      ],
      "stateMutability": "view",
      "type": "function"
    },
    {
      "inputs": [],
      "name": "clientApproval",
      "outputs": [],
      "stateMutability": "nonpayable",
      "type": "function"
    },
    {
      "inputs": [],
      "name": "freelancer",
      "outputs": [
        {
          "internalType": "address",
          "name": "",
          "type": "address"
        }
      ],
      "stateMutability": "view",
      "type": "function"
    },
    {
      "inputs": [
        {
          "internalType": "address",
          "name": "",
          "type": "address"
        }
      ],
      "name": "hasVoted",
      "outputs": [
        {
          "internalType": "bool",
          "name": "",
          "type": "bool"
        }
      ],
      "stateMutability": "view",
      "type": "function"
    },
    {
      "inputs": [
        {
          "internalType": "address",
          "name": "",
          "type": "address"
        }
      ],
      "name": "isArbiter",
      "outputs": [
        {
          "internalType": "bool",
          "name": "",
          "type": "bool"
        }
      ],
      "stateMutability": "view",
      "type": "function"
    },
    {
      "inputs": [],
      "name": "raiseDispute",
      "outputs": [],
      "stateMutability": "nonpayable",
      "type": "function"
    },
    {
      "inputs": [],
      "name": "state",
      "outputs": [
        {
          "internalType": "enum Escrow.State",
          "name": "",
          "type": "uint8"
        }
      ],
      "stateMutability": "view",
      "type": "function"
    },
    {
      "inputs": [],
      "name": "terms",
      "outputs": [
        {
          "internalType": "string",
          "name": "",
          "type": "string"
        }
      ],
      "stateMutability": "view",
      "type": "function"
    },
    {
      "inputs": [
        {
          "internalType": "bool",
          "name": "approve",
          "type": "bool"
        }
      ],
      "name": "vote",
      "outputs": [],
      "stateMutability": "nonpayable",
      "type": "function"
    }
  ],
  "bytecode": "0x608060405260405162001a6f38038062001a6f833981810160405281019062000029919062000516565b336000806101000a81548173ffffffffffffffffffffffffffffffffffffffff021916908373ffffffffffffffffffffffffffffffffffffffff16021790555083600160006101000a81548173ffffffffffffffffffffffffffffffffffffffff021916908373ffffffffffffffffffffffffffffffffffffffff160217905550816004819055508060059081620000c2919062000807565b506000600660006101000a81548160ff02191690836003811115620000ec57620000eb620008ee565b5b0217905550825160038190555060005b835181101562000189576001600260008684815181106200012257620001216200091d565b5b602002602001015173ffffffffffffffffffffffffffffffffffffffff1673ffffffffffffffffffffffffffffffffffffffff16815260200190815260200160002060006101000a81548160ff0219169083151502179055508080600101915050620000fc565b50600454341015620001d2576040517f08c379a0000000000000000000000000000000000000000000000000000000008152600401620001c990620009d3565b60405180910390fd5b7fe899121c4f1c7f070ab8ee107ad3d28ff5fe98442026a1361d1c1e1ded66e38e60405160405180910390a150505050620009f5565b6000604051905090565b600080fd5b600080fd5b600073ffffffffffffffffffffffffffffffffffffffff82169050919050565b600062000249826200021c565b9050919050565b6200025b816200023c565b81146200026757600080fd5b50565b6000815190506200027b8162000250565b92915050565b600080fd5b6000601f19601f8301169050919050565b7f4e487b7100000000000000000000000000000000000000000000000000000000600052604160045260246000fd5b620002d18262000286565b810181811067ffffffffffffffff82111715620002f357620002f262000297565b5b80604052505050565b60006200030862000208565b9050620003168282620002c6565b919050565b600067ffffffffffffffff82111562000339576200033862000297565b5b602082029050602081019050919050565b600080fd5b60006200036662000360846200031b565b620002fc565b905080838252602082019050602084028301858111156200038c576200038b6200034a565b5b835b81811015620003b95780620003a488826200026a565b8452602084019350506020810190506200038e565b5050509392505050565b600082601f830112620003db57620003da62000281565b5b8151620003ed8482602086016200034f565b91505092915050565b6000819050919050565b6200040b81620003f6565b81146200041757600080fd5b50565b6000815190506200042b8162000400565b92915050565b600080fd5b600067ffffffffffffffff82111562000454576200045362000297565b5b6200045f8262000286565b9050602081019050919050565b60005b838110156200048c5780820151818401526020810190506200046f565b60008484015250505050565b6000620004af620004a98462000436565b620002fc565b905082815260208101848484011115620004ce57620004cd62000431565b5b620004db8482856200046c565b509392505050565b600082601f830112620004fb57620004fa62000281565b5b81516200050d84826020860162000498565b91505092915050565b6000806000806080858703121562000533576200053262000212565b5b600062000543878288016200026a565b945050602085015167ffffffffffffffff81111562000567576200056662000217565b5b6200057587828801620003c3565b935050604062000588878288016200041a565b925050606085015167ffffffffffffffff811115620005ac57620005ab62000217565b5b620005ba87828801620004e3565b91505092959194509250565b600081519050919050565b7f4e487b7100000000000000000000000000000000000000000000000000000000600052602260045260246000fd5b600060028204905060018216806200061957607f821691505b6020821081036200062f576200062e620005d1565b5b50919050565b60008190508160005260206000209050919050565b60006020601f8301049050919050565b600082821b905092915050565b600060088302620006997fffffffffffffffffffffffffffffffffffffffffffffffffffffffffffffffff826200065a565b620006a586836200065a565b95508019841693508086168417925050509392505050565b6000819050919050565b6000620006e8620006e2620006dc84620003f6565b620006bd565b620003f6565b9050919050565b6000819050919050565b6200070483620006c7565b6200071c6200071382620006ef565b84845462000667565b825550505050565b600090565b6200073362000724565b62000740818484620006f9565b505050565b5b8181101562000768576200075c60008262000729565b60018101905062000746565b5050565b601f821115620007b757620007818162000635565b6200078c846200064a565b810160208510156200079c578190505b620007b4620007ab856200064a565b83018262000745565b50505b505050565b600082821c905092915050565b6000620007dc60001984600802620007bc565b1980831691505092915050565b6000620007f78383620007c9565b9150826002028217905092915050565b6200081282620005c6565b67ffffffffffffffff8111156200082e576200082d62000297565b5b6200083a825462000600565b620008478282856200076c565b600060209050601f8311600181146200087f57600084156200086a578287015190505b620008768582620007e9565b865550620008e6565b601f1984166200088f8662000635565b60005b82811015620008b95784890151825560018201915060208501945060208101905062000892565b86831015620008d95784890151620008d5601f891682620007c9565b8355505b6001600288020188555050505b505050505050565b7f4e487b7100000000000000000000000000000000000000000000000000000000600052602160045260246000fd5b7f4e487b7100000000000000000000000000000000000000000000000000000000600052603260045260246000fd5b600082825260208201905092915050565b7f5472616e7366657220616d6f756e74206973206c657373207468616e20636f6e60008201527f747261637420616d6f756e740000000000000000000000000000000000000000602082015250565b6000620009bb602c836200094c565b9150620009c8826200095d565b604082019050919050565b60006020820190508181036000830152620009ee81620009ac565b9050919050565b61106a8062000a056000396000f3fe608060405234801561001057600080fd5b506004361061009e5760003560e01c8063a37dda2c11610066578063a37dda2c14610121578063aa8c217c1461013f578063c19d93fb1461015d578063d50256251461017b578063f5bbc6d5146101995761009e565b806309eef43e146100a3578063109e94cf146100d35780634b9f5c98146100f15780636daa2d441461010d5780637ccbba7a14610117575b600080fd5b6100bd60048036038101906100b891906109cb565b6101c9565b6040516100ca9190610a13565b60405180910390f35b6100db6101e9565b6040516100e89190610a3d565b60405180910390f35b61010b60048036038101906101069190610a84565b61020d565b005b610115610376565b005b61011f610536565b005b6101296105ce565b6040516101369190610a3d565b60405180910390f35b6101476105f4565b6040516101549190610aca565b60405180910390f35b6101656105fa565b6040516101729190610b5c565b60405180910390f35b61018361060d565b6040516101909190610c07565b60405180910390f35b6101b360048036038101906101ae91906109cb565b61069b565b6040516101c09190610a13565b60405180910390f35b60076020528060005260406000206000915054906101000a900460ff1681565b60008054906101000a900473ffffffffffffffffffffffffffffffffffffffff1681565b600260003373ffffffffffffffffffffffffffffffffffffffff1673ffffffffffffffffffffffffffffffffffffffff16815260200190815260200160002060009054906101000a900460ff16610299576040517f08c379a000000000000000000000000000000000000000000000000000000000815260040161029090610c75565b60405180910390fd5b6001600760003373ffffffffffffffffffffffffffffffffffffffff1673ffffffffffffffffffffffffffffffffffffffff16815260200190815260200160002060006101000a81548160ff0219169083151502179055507f16a9aa39af49f169911e977347975198c503525f7240d6892a626f0227642fce336040516103209190610a3d565b60405180910390a16009600081548092919061033b90610cc4565b9190505550801561035f576008600081548092919061035990610cc4565b91905055505b60035460095403610373576103726106bb565b5b50565b60008054906101000a900473ffffffffffffffffffffffffffffffffffffffff1673ffffffffffffffffffffffffffffffffffffffff163373ffffffffffffffffffffffffffffffffffffffff16148061041d5750600160009054906101000a900473ffffffffffffffffffffffffffffffffffffffff1673ffffffffffffffffffffffffffffffffffffffff163373ffffffffffffffffffffffffffffffffffffffff16145b61045c576040517f08c379a000000000000000000000000000000000000000000000000000000000815260040161045390610d7e565b60405180910390fd5b600060038111156104705761046f610ae5565b5b600660009054906101000a900460ff16600381111561049257610491610ae5565b5b146104d2576040517f08c379a00000000000000000000000000000000000000000000000000000000081526004016104c990610e10565b60405180910390fd5b6001600660006101000a81548160ff021916908360038111156104f8576104f7610ae5565b5b02179055507f0b3cd97b16a08a5c77357c276d248827ad32dfd56060f7c55d6255537ba3d9623360405161052c9190610a3d565b60405180910390a1565b60008054906101000a900473ffffffffffffffffffffffffffffffffffffffff1673ffffffffffffffffffffffffffffffffffffffff163373ffffffffffffffffffffffffffffffffffffffff16146105c4576040517f08c379a00000000000000000000000000000000000000000000000000000000081526004016105bb90610ea2565b60405180910390fd5b6105cc610717565b565b600160009054906101000a900473ffffffffffffffffffffffffffffffffffffffff1681565b60045481565b600660009054906101000a900460ff1681565b6005805461061a90610ef1565b80601f016020809104026020016040519081016040528092919081815260200182805461064690610ef1565b80156106935780601f1061066857610100808354040283529160200191610693565b820191906000526020600020905b81548152906001019060200180831161067657829003601f168201915b505050505081565b60026020528060005260406000206000915054906101000a900460ff1681565b60026003546106ca9190610f51565b60085411156106e0576106db610717565b6106e9565b6106e8610841565b5b7f10cf2e6a49384e0817ef896233aca0b14f649b81e549f2e6ec5a023f4daf54c160405160405180910390a1565b6000600160009054906101000a900473ffffffffffffffffffffffffffffffffffffffff1673ffffffffffffffffffffffffffffffffffffffff1660045460405161076190610fb3565b60006040518083038185875af1925050503d806000811461079e576040519150601f19603f3d011682016040523d82523d6000602084013e6107a3565b606091505b50509050806107e7576040517f08c379a00000000000000000000000000000000000000000000000000000000081526004016107de90611014565b60405180910390fd5b6003600660006101000a81548160ff0219169083600381111561080d5761080c610ae5565b5b02179055507fe06452d00b2b58f14a1fa6d499ea982ff93ea827ae700ea9ba03f4daddc94bc160405160405180910390a150565b60008060009054906101000a900473ffffffffffffffffffffffffffffffffffffffff1673ffffffffffffffffffffffffffffffffffffffff164760405161088890610fb3565b60006040518083038185875af1925050503d80600081146108c5576040519150601f19603f3d011682016040523d82523d6000602084013e6108ca565b606091505b505090508061090e576040517f08c379a000000000000000000000000000000000000000000000000000000000815260040161090590611014565b60405180910390fd5b6002600660006101000a81548160ff0219169083600381111561093457610933610ae5565b5b02179055507f63b958841f79ab97cb5456da181454b9932c0e15a3b17f1cbd27e2a8bc61043760405160405180910390a150565b600080fd5b600073ffffffffffffffffffffffffffffffffffffffff82169050919050565b60006109988261096d565b9050919050565b6109a88161098d565b81146109b357600080fd5b50565b6000813590506109c58161099f565b92915050565b6000602082840312156109e1576109e0610968565b5b60006109ef848285016109b6565b91505092915050565b60008115159050919050565b610a0d816109f8565b82525050565b6000602082019050610a286000830184610a04565b92915050565b610a378161098d565b82525050565b6000602082019050610a526000830184610a2e565b92915050565b610a61816109f8565b8114610a6c57600080fd5b50565b600081359050610a7e81610a58565b92915050565b600060208284031215610a9a57610a99610968565b5b6000610aa884828501610a6f565b91505092915050565b6000819050919050565b610ac481610ab1565b82525050565b6000602082019050610adf6000830184610abb565b92915050565b7f4e487b7100000000000000000000000000000000000000000000000000000000600052602160045260246000fd5b60048110610b2557610b24610ae5565b5b50565b6000819050610b3682610b14565b919050565b6000610b4682610b28565b9050919050565b610b5681610b3b565b82525050565b6000602082019050610b716000830184610b4d565b92915050565b600081519050919050565b600082825260208201905092915050565b60005b83811015610bb1578082015181840152602081019050610b96565b60008484015250505050565b6000601f19601f8301169050919050565b6000610bd982610b77565b610be38185610b82565b9350610bf3818560208601610b93565b610bfc81610bbd565b840191505092915050565b60006020820190508181036000830152610c218184610bce565b905092915050565b7f4f6e6c792061726269746572732063616e20766f746500000000000000000000600082015250565b6000610c5f601683610b82565b9150610c6a82610c29565b602082019050919050565b60006020820190508181036000830152610c8e81610c52565b9050919050565b7f4e487b7100000000000000000000000000000000000000000000000000000000600052601160045260246000fd5b6000610ccf82610ab1565b91507fffffffffffffffffffffffffffffffffffffffffffffffffffffffffffffffff8203610d0157610d00610c95565b5b600182019050919050565b7f4f6e6c7920636c69656e74206f7220667265656c616e6365722063616e20726160008201527f6973652064697370757465000000000000000000000000000000000000000000602082015250565b6000610d68602b83610b82565b9150610d7382610d0c565b604082019050919050565b60006020820190508181036000830152610d9781610d5b565b9050919050565b7f446973707574652063616e27742062652072616973656420616674657220636f60008201527f6d706c6574696f6e206f722063616e63656c6c6174696f6e0000000000000000602082015250565b6000610dfa603883610b82565b9150610e0582610d9e565b604082019050919050565b60006020820190508181036000830152610e2981610ded565b9050919050565b7f4f6e6c7920636c69656e742063616e2070726f6365737320696e7374616e746c60008201527f7900000000000000000000000000000000000000000000000000000000000000602082015250565b6000610e8c602183610b82565b9150610e9782610e30565b604082019050919050565b60006020820190508181036000830152610ebb81610e7f565b9050919050565b7f4e487b7100000000000000000000000000000000000000000000000000000000600052602260045260246000fd5b60006002820490506001821680610f0957607f821691505b602082108103610f1c57610f1b610ec2565b5b50919050565b7f4e487b7100000000000000000000000000000000000000000000000000000000600052601260045260246000fd5b6000610f5c82610ab1565b9150610f6783610ab1565b925082610f7757610f76610f22565b5b828204905092915050565b600081905092915050565b50565b6000610f9d600083610f82565b9150610fa882610f8d565b600082019050919050565b6000610fbe82610f90565b9150819050919050565b7f4661696c656420746f2073656e64206574686572000000000000000000000000600082015250565b6000610ffe601483610b82565b915061100982610fc8565b602082019050919050565b6000602082019050818103600083015261102d81610ff1565b905091905056fea264697066735822122001f4a930921931f5e25e6d90aa8769254db2b1a27ffd0a32cf59d2b25a714c1664736f6c63430008180033",
  "linkReferences": {},
  "deployedLinkReferences": {}
}